{
  "contractName": "Inventory",
  "abi": [
    {
      "constant": true,
      "inputs": [
        {
          "name": "",
          "type": "uint256"
        }
      ],
      "name": "ORDER",
      "outputs": [
        {
          "name": "id2",
          "type": "uint256"
        },
        {
          "name": "id1",
          "type": "uint256"
        },
        {
          "name": "cid",
          "type": "address"
        },
        {
          "name": "name",
          "type": "string"
        },
        {
          "name": "brand",
          "type": "string"
        },
        {
          "name": "quantity",
          "type": "uint256"
        },
        {
          "name": "price",
          "type": "uint256"
        },
        {
          "name": "time",
          "type": "uint256"
        }
      ],
      "payable": false,
      "stateMutability": "view",
      "type": "function"
    },
    {
      "constant": true,
      "inputs": [],
      "name": "customer",
      "outputs": [
        {
          "name": "",
          "type": "address"
        }
      ],
      "payable": false,
      "stateMutability": "view",
      "type": "function"
    },
    {
      "constant": true,
      "inputs": [
        {
          "name": "",
          "type": "uint256"
        }
      ],
      "name": "PROD",
      "outputs": [
        {
          "name": "pid",
          "type": "uint256"
        },
        {
          "name": "pname",
          "type": "string"
        },
        {
          "name": "pbrand",
          "type": "string"
        },
        {
          "name": "pquantity",
          "type": "uint256"
        },
        {
          "name": "pprice",
          "type": "uint256"
        },
        {
          "name": "time",
          "type": "uint256"
        }
      ],
      "payable": false,
      "stateMutability": "view",
      "type": "function"
    },
    {
      "constant": true,
      "inputs": [
        {
          "name": "",
          "type": "uint256"
        }
      ],
      "name": "c_id",
      "outputs": [
        {
          "name": "",
          "type": "uint256"
        }
      ],
      "payable": false,
      "stateMutability": "view",
      "type": "function"
    },
    {
      "constant": true,
      "inputs": [
        {
          "name": "",
          "type": "uint256"
        }
      ],
      "name": "UPDATE",
      "outputs": [
        {
          "name": "ipid",
          "type": "uint256"
        },
        {
          "name": "iquantity",
          "type": "uint256"
        },
        {
          "name": "iprice",
          "type": "uint256"
        }
      ],
      "payable": false,
      "stateMutability": "view",
      "type": "function"
    },
    {
      "constant": true,
      "inputs": [
        {
          "name": "",
          "type": "uint256"
        }
      ],
      "name": "o_id",
      "outputs": [
        {
          "name": "",
          "type": "uint256"
        }
      ],
      "payable": false,
      "stateMutability": "view",
      "type": "function"
    },
    {
      "constant": true,
      "inputs": [
        {
          "name": "",
          "type": "address"
        }
      ],
      "name": "CUST",
      "outputs": [
        {
          "name": "",
          "type": "address"
        }
      ],
      "payable": false,
      "stateMutability": "view",
      "type": "function"
    },
    {
      "constant": true,
      "inputs": [],
      "name": "owner",
      "outputs": [
        {
          "name": "",
          "type": "address"
        }
      ],
      "payable": false,
      "stateMutability": "view",
      "type": "function"
    },
    {
      "constant": true,
      "inputs": [
        {
          "name": "",
          "type": "uint256"
        }
      ],
      "name": "CANCELL",
      "outputs": [
        {
          "name": "oid",
          "type": "uint256"
        },
        {
          "name": "pid",
          "type": "uint256"
        },
        {
          "name": "c_address",
          "type": "address"
        },
        {
          "name": "price",
          "type": "uint256"
        },
        {
          "name": "time",
          "type": "uint256"
        }
      ],
      "payable": false,
      "stateMutability": "view",
      "type": "function"
    },
    {
      "constant": true,
      "inputs": [
        {
          "name": "",
          "type": "uint256"
        }
      ],
      "name": "p_id",
      "outputs": [
        {
          "name": "",
          "type": "uint256"
        }
      ],
      "payable": false,
      "stateMutability": "view",
      "type": "function"
    },
    {
      "constant": true,
      "inputs": [],
      "name": "productCount",
      "outputs": [
        {
          "name": "",
          "type": "uint256"
        }
      ],
      "payable": false,
      "stateMutability": "view",
      "type": "function"
    },
    {
      "inputs": [],
      "payable": false,
      "stateMutability": "nonpayable",
      "type": "constructor"
    },
    {
      "constant": true,
      "inputs": [
        {
          "name": "id",
          "type": "uint256"
        }
      ],
      "name": "view1",
      "outputs": [
        {
          "name": "",
          "type": "uint256"
        }
      ],
      "payable": false,
      "stateMutability": "view",
      "type": "function"
    },
    {
      "constant": false,
      "inputs": [],
      "name": "cust",
      "outputs": [
        {
          "name": "",
          "type": "address"
        }
      ],
      "payable": false,
      "stateMutability": "nonpayable",
      "type": "function"
    },
    {
      "constant": false,
      "inputs": [
        {
          "name": "id",
          "type": "uint256"
        },
        {
          "name": "name",
          "type": "string"
        },
        {
          "name": "brand",
          "type": "string"
        },
        {
          "name": "quantity",
          "type": "uint256"
        },
        {
          "name": "price",
          "type": "uint256"
        }
      ],
      "name": "p_details",
      "outputs": [],
      "payable": true,
      "stateMutability": "payable",
      "type": "function"
    },
    {
      "constant": true,
      "inputs": [],
      "name": "getProductsCount",
      "outputs": [
        {
          "name": "",
          "type": "uint256"
        }
      ],
      "payable": false,
      "stateMutability": "view",
      "type": "function"
    },
    {
      "constant": true,
      "inputs": [
        {
          "name": "_id",
          "type": "uint256"
        }
      ],
      "name": "getProductId",
      "outputs": [
        {
          "name": "",
          "type": "uint256"
        }
      ],
      "payable": false,
      "stateMutability": "view",
      "type": "function"
    },
    {
      "constant": false,
      "inputs": [
        {
          "name": "id2",
          "type": "uint256"
        },
        {
          "name": "id",
          "type": "uint256"
        },
        {
          "name": "pquantity",
          "type": "uint256"
        }
      ],
      "name": "order",
      "outputs": [],
      "payable": true,
      "stateMutability": "payable",
      "type": "function"
    },
    {
      "constant": true,
      "inputs": [],
      "name": "getOrderCount",
      "outputs": [
        {
          "name": "",
          "type": "uint256"
        }
      ],
      "payable": false,
      "stateMutability": "view",
      "type": "function"
    },
    {
      "constant": false,
      "inputs": [
        {
          "name": "id",
          "type": "uint256"
        },
        {
          "name": "_quantity",
          "type": "uint256"
        },
        {
          "name": "price",
          "type": "uint256"
        }
      ],
      "name": "update_product",
      "outputs": [],
      "payable": false,
      "stateMutability": "nonpayable",
      "type": "function"
    },
    {
      "constant": true,
      "inputs": [
        {
          "name": "id",
          "type": "uint256"
        }
      ],
      "name": "viewproduct",
      "outputs": [
        {
          "name": "",
          "type": "uint256"
        },
        {
          "name": "",
          "type": "string"
        },
        {
          "name": "",
          "type": "string"
        },
        {
          "name": "",
          "type": "uint256"
        },
        {
          "name": "",
          "type": "uint256"
        },
        {
          "name": "",
          "type": "uint256"
        }
      ],
      "payable": false,
      "stateMutability": "view",
      "type": "function"
    },
    {
      "constant": true,
      "inputs": [
        {
          "name": "id2",
          "type": "uint256"
        }
      ],
      "name": "vieworder",
      "outputs": [
        {
          "name": "",
          "type": "uint256"
        },
        {
          "name": "",
          "type": "address"
        },
        {
          "name": "",
          "type": "uint256"
        },
        {
          "name": "",
          "type": "string"
        },
        {
          "name": "",
          "type": "uint256"
        },
        {
          "name": "",
          "type": "uint256"
        },
        {
          "name": "",
          "type": "uint256"
        }
      ],
      "payable": false,
      "stateMutability": "view",
      "type": "function"
    },
    {
      "constant": true,
      "inputs": [
        {
          "name": "id",
          "type": "uint256"
        }
      ],
      "name": "outOfStock",
      "outputs": [
        {
          "name": "",
          "type": "uint256"
        },
        {
          "name": "",
          "type": "uint256"
        }
      ],
      "payable": false,
      "stateMutability": "view",
      "type": "function"
    },
    {
      "constant": false,
      "inputs": [
        {
          "name": "oid",
          "type": "uint256"
        },
        {
          "name": "id",
          "type": "uint256"
        }
      ],
      "name": "ordercancel",
      "outputs": [],
      "payable": false,
      "stateMutability": "nonpayable",
      "type": "function"
    },
    {
      "constant": true,
      "inputs": [],
      "name": "getcancell_list",
      "outputs": [
        {
          "name": "",
          "type": "uint256[]"
        }
      ],
      "payable": false,
      "stateMutability": "view",
      "type": "function"
    },
    {
      "constant": true,
      "inputs": [
        {
          "name": "oid",
          "type": "uint256"
        }
      ],
      "name": "cancel_list",
      "outputs": [
        {
          "name": "",
          "type": "uint256"
        },
        {
          "name": "",
          "type": "uint256"
        },
        {
          "name": "",
          "type": "address"
        },
        {
          "name": "",
          "type": "uint256"
        },
        {
          "name": "",
          "type": "uint256"
        }
      ],
      "payable": false,
      "stateMutability": "view",
      "type": "function"
    },
    {
      "constant": false,
      "inputs": [
        {
          "name": "x",
          "type": "address"
        }
      ],
      "name": "returnether",
      "outputs": [],
      "payable": true,
      "stateMutability": "payable",
      "type": "function"
    }
  ],
  "bytecode": "0x6080604052600060015534801561001557600080fd5b5033600a60006101000a81548173ffffffffffffffffffffffffffffffffffffffff021916908373ffffffffffffffffffffffffffffffffffffffff16021790555061219b806100666000396000f300608060405260043610610154576000357c0100000000000000000000000000000000000000000000000000000000900463ffffffff16806303c89492146101595780630e882129146102c15780631a79b79a146102f5578063218915e5146103615780632804b2c0146103985780632ad0eaf4146103ef57806339a5b4541461051d578063481009d91461055e57806349bc60c01461065a5780635786fd40146106a25780635ae637cc146106cd5780636a4506521461078d578063721a13e9146107ce578063740c133a146108fc57806378796426146109535780637f230f06146109a257806386de9053146109e3578063870307c514610a6c57806387744c3714610aad5780638d0a5fbb14610b305780638da5cb5b14610b5b57806392b1a83d14610bb2578063975b345814610c3b5780639f77a60514610c71578063aece059014610cb2578063e0f6ef8714610cf3575b600080fd5b34801561016557600080fd5b5061018460048036038101908080359060200190929190505050610d1e565b604051808981526020018881526020018773ffffffffffffffffffffffffffffffffffffffff1673ffffffffffffffffffffffffffffffffffffffff1681526020018060200180602001868152602001858152602001848152602001838103835288818151815260200191508051906020019080838360005b838110156102185780820151818401526020810190506101fd565b50505050905090810190601f1680156102455780820380516001836020036101000a031916815260200191505b50838103825287818151815260200191508051906020019080838360005b8381101561027e578082015181840152602081019050610263565b50505050905090810190601f1680156102ab5780820380516001836020036101000a031916815260200191505b509a505050505050505050505060405180910390f35b6102f3600480360381019080803590602001909291908035906020019092919080359060200190929190505050610eb6565b005b34801561030157600080fd5b5061030a6111df565b6040518080602001828103825283818151815260200191508051906020019060200280838360005b8381101561034d578082015181840152602081019050610332565b505050509050019250505060405180910390f35b34801561036d57600080fd5b506103966004803603810190808035906020019092919080359060200190929190505050611237565b005b3480156103a457600080fd5b506103ad61151d565b604051808273ffffffffffffffffffffffffffffffffffffffff1673ffffffffffffffffffffffffffffffffffffffff16815260200191505060405180910390f35b3480156103fb57600080fd5b5061041a60048036038101908080359060200190929190505050611542565b604051808781526020018060200180602001868152602001858152602001848152602001838103835288818151815260200191508051906020019080838360005b8381101561047657808201518184015260208101905061045b565b50505050905090810190601f1680156104a35780820380516001836020036101000a031916815260200191505b50838103825287818151815260200191508051906020019080838360005b838110156104dc5780820151818401526020810190506104c1565b50505050905090810190601f1680156105095780820380516001836020036101000a031916815260200191505b509850505050505050505060405180910390f35b34801561052957600080fd5b50610548600480360381019080803590602001909291905050506116ae565b6040518082815260200191505060405180910390f35b34801561056a57600080fd5b50610589600480360381019080803590602001909291905050506116d1565b604051808881526020018773ffffffffffffffffffffffffffffffffffffffff1673ffffffffffffffffffffffffffffffffffffffff16815260200186815260200180602001858152602001848152602001838152602001828103825286818151815260200191508051906020019080838360005b838110156106195780820151818401526020810190506105fe565b50505050905090810190601f1680156106465780820380516001836020036101000a031916815260200191505b509850505050505050505060405180910390f35b34801561066657600080fd5b5061068560048036038101908080359060200190929190505050611852565b604051808381526020018281526020019250505060405180910390f35b3480156106ae57600080fd5b506106b761188c565b6040518082815260200191505060405180910390f35b61078b60048036038101908080359060200190929190803590602001908201803590602001908080601f0160208091040260200160405190810160405280939291908181526020018383808284378201915050505050509192919290803590602001908201803590602001908080601f01602080910402602001604051908101604052809392919081815260200183838082843782019150505050505091929192908035906020019092919080359060200190929190505050611899565b005b34801561079957600080fd5b506107cc600480360381019080803590602001909291908035906020019092919080359060200190929190505050611a21565b005b3480156107da57600080fd5b506107f960048036038101908080359060200190929190505050611b12565b604051808781526020018060200180602001868152602001858152602001848152602001838103835288818151815260200191508051906020019080838360005b8381101561085557808201518184015260208101905061083a565b50505050905090810190601f1680156108825780820380516001836020036101000a031916815260200191505b50838103825287818151815260200191508051906020019080838360005b838110156108bb5780820151818401526020810190506108a0565b50505050905090810190601f1680156108e85780820380516001836020036101000a031916815260200191505b509850505050505050505060405180910390f35b34801561090857600080fd5b50610911611cf1565b604051808273ffffffffffffffffffffffffffffffffffffffff1673ffffffffffffffffffffffffffffffffffffffff16815260200191505060405180910390f35b34801561095f57600080fd5b5061097e60048036038101908080359060200190929190505050611dd6565b60405180848152602001838152602001828152602001935050505060405180910390f35b3480156109ae57600080fd5b506109cd60048036038101908080359060200190929190505050611e00565b6040518082815260200191505060405180910390f35b3480156109ef57600080fd5b50610a0e60048036038101908080359060200190929190505050611e23565b604051808681526020018581526020018473ffffffffffffffffffffffffffffffffffffffff1673ffffffffffffffffffffffffffffffffffffffff1681526020018381526020018281526020019550505050505060405180910390f35b348015610a7857600080fd5b50610a9760048036038101908080359060200190929190505050611ed1565b6040518082815260200191505060405180910390f35b348015610ab957600080fd5b50610aee600480360381019080803573ffffffffffffffffffffffffffffffffffffffff169060200190929190505050611ef1565b604051808273ffffffffffffffffffffffffffffffffffffffff1673ffffffffffffffffffffffffffffffffffffffff16815260200191505060405180910390f35b348015610b3c57600080fd5b50610b45611f24565b6040518082815260200191505060405180910390f35b348015610b6757600080fd5b50610b70611f31565b604051808273ffffffffffffffffffffffffffffffffffffffff1673ffffffffffffffffffffffffffffffffffffffff16815260200191505060405180910390f35b348015610bbe57600080fd5b50610bdd60048036038101908080359060200190929190505050611f57565b604051808681526020018581526020018473ffffffffffffffffffffffffffffffffffffffff1673ffffffffffffffffffffffffffffffffffffffff1681526020018381526020018281526020019550505050505060405180910390f35b610c6f600480360381019080803573ffffffffffffffffffffffffffffffffffffffff169060200190929190505050611fad565b005b348015610c7d57600080fd5b50610c9c60048036038101908080359060200190929190505050611ff7565b6040518082815260200191505060405180910390f35b348015610cbe57600080fd5b50610cdd6004803603810190808035906020019092919050505061201a565b6040518082815260200191505060405180910390f35b348015610cff57600080fd5b50610d0861203d565b6040518082815260200191505060405180910390f35b60076020528060005260406000206000915090508060000154908060010154908060020160009054906101000a900473ffffffffffffffffffffffffffffffffffffffff1690806003018054600181600116156101000203166002900480601f016020809104026020016040519081016040528092919081815260200182805460018160011615610100020316600290048015610dfc5780601f10610dd157610100808354040283529160200191610dfc565b820191906000526020600020905b815481529060010190602001808311610ddf57829003601f168201915b505050505090806004018054600181600116156101000203166002900480601f016020809104026020016040519081016040528092919081815260200182805460018160011615610100020316600290048015610e9a5780601f10610e6f57610100808354040283529160200191610e9a565b820191906000526020600020905b815481529060010190602001808311610e7d57829003601f168201915b5050505050908060050154908060060154908060070154905088565b600660008381526020019081526020016000206000015482148015610ef1575060066000838152602001908152602001600020600301548111155b1515610efc57600080fd5b600560003373ffffffffffffffffffffffffffffffffffffffff1673ffffffffffffffffffffffffffffffffffffffff16815260200190815260200160002060009054906101000a900473ffffffffffffffffffffffffffffffffffffffff1673ffffffffffffffffffffffffffffffffffffffff163373ffffffffffffffffffffffffffffffffffffffff16141515610f9557600080fd5b826007600085815260200190815260200160002060000181905550336007600085815260200190815260200160002060020160006101000a81548173ffffffffffffffffffffffffffffffffffffffff021916908373ffffffffffffffffffffffffffffffffffffffff1602179055508160076000858152602001908152602001600020600101819055506006600083815260200190815260200160002060010160076000858152602001908152602001600020600301908054600181600116156101000203166002900461106b929190612043565b50600660008381526020019081526020016000206002016007600085815260200190815260200160002060040190805460018160011615610100020316600290046110b7929190612043565b50806007600085815260200190815260200160002060050181905550600660008381526020019081526020016000206004015481026007600085815260200190815260200160002060060181905550426007600085815260200190815260200160002060070181905550806006600084815260200190815260200160002060030160008282540392505081905550600a60009054906101000a900473ffffffffffffffffffffffffffffffffffffffff1673ffffffffffffffffffffffffffffffffffffffff166108fc349081150290604051600060405180830381858888f193505050501580156111ad573d6000803e3d6000fd5b506003839080600181540180825580915050906001820390600052602060002001600090919290919091505550505050565b6060600480548060200260200160405190810160405280929190818152602001828054801561122d57602002820191906000526020600020905b815481526020019060010190808311611219575b5050505050905090565b60006007600084815260200190815260200160002060020160009054906101000a900473ffffffffffffffffffffffffffffffffffffffff1673ffffffffffffffffffffffffffffffffffffffff163373ffffffffffffffffffffffffffffffffffffffff161480156113345750600560003373ffffffffffffffffffffffffffffffffffffffff1673ffffffffffffffffffffffffffffffffffffffff16815260200190815260200160002060009054906101000a900473ffffffffffffffffffffffffffffffffffffffff1673ffffffffffffffffffffffffffffffffffffffff163373ffffffffffffffffffffffffffffffffffffffff16145b151561133f57600080fd5b600760008481526020019081526020016000206007015442039050610e10811115151561136b57600080fd5b60076000848152602001908152602001600020600501546006600084815260200190815260200160002060030160008282540192505081905550600760008481526020019081526020016000206005015460076000858152602001908152602001600020600501600082825403925050819055508260096000858152602001908152602001600020600001819055508160096000858152602001908152602001600020600101819055506007600084815260200190815260200160002060020160009054906101000a900473ffffffffffffffffffffffffffffffffffffffff166009600085815260200190815260200160002060020160006101000a81548173ffffffffffffffffffffffffffffffffffffffff021916908373ffffffffffffffffffffffffffffffffffffffff160217905550600760008481526020019081526020016000206006015460096000858152602001908152602001600020600301819055504260096000858152602001908152602001600020600401819055506004839080600181540180825580915050906001820390600052602060002001600090919290919091505550505050565b6000809054906101000a900473ffffffffffffffffffffffffffffffffffffffff1681565b6006602052806000526040600020600091509050806000015490806001018054600181600116156101000203166002900480601f0160208091040260200160405190810160405280929190818152602001828054600181600116156101000203166002900480156115f45780601f106115c9576101008083540402835291602001916115f4565b820191906000526020600020905b8154815290600101906020018083116115d757829003601f168201915b505050505090806002018054600181600116156101000203166002900480601f0160208091040260200160405190810160405280929190818152602001828054600181600116156101000203166002900480156116925780601f1061166757610100808354040283529160200191611692565b820191906000526020600020905b81548152906001019060200180831161167557829003601f168201915b5050505050908060030154908060040154908060050154905086565b6004818154811015156116bd57fe5b906000526020600020016000915090505481565b6000806000606060008060006007600089815260200190815260200160002060000154600760008a815260200190815260200160002060020160009054906101000a900473ffffffffffffffffffffffffffffffffffffffff16600760008b815260200190815260200160002060010154600760008c8152602001908152602001600020600301600760008d815260200190815260200160002060050154600760008e815260200190815260200160002060060154600760008f815260200190815260200160002060070154838054600181600116156101000203166002900480601f0160208091040260200160405190810160405280929190818152602001828054600181600116156101000203166002900480156118325780601f1061180757610100808354040283529160200191611832565b820191906000526020600020905b81548152906001019060200180831161181557829003601f168201915b505050505093509650965096509650965096509650919395979092949650565b6000806006600084815260200190815260200160002060000154600660008581526020019081526020016000206003015491509150915091565b6000600280549050905090565b3373ffffffffffffffffffffffffffffffffffffffff16600a60009054906101000a900473ffffffffffffffffffffffffffffffffffffffff1673ffffffffffffffffffffffffffffffffffffffff161415156118f557600080fd5b8460066000878152602001908152602001600020600001541415151561191a57600080fd5b8460066000878152602001908152602001600020600001819055508360066000878152602001908152602001600020600101908051906020019061195f9291906120ca565b508260066000878152602001908152602001600020600201908051906020019061198a9291906120ca565b5081600660008781526020019081526020016000206003018190555080600660008781526020019081526020016000206004018190555042600660008781526020019081526020016000206005018190555060016000815480929190600101919050555060028590806001815401808255809150509060018203906000526020600020016000909192909190915055505050505050565b3373ffffffffffffffffffffffffffffffffffffffff16600a60009054906101000a900473ffffffffffffffffffffffffffffffffffffffff1673ffffffffffffffffffffffffffffffffffffffff16141515611a7d57600080fd5b826008600085815260200190815260200160002060000181905550816008600085815260200190815260200160002060010181905550806008600085815260200190815260200160002060020181905550816006600085815260200190815260200160002060030160008282540192505081905550806006600085815260200190815260200160002060040181905550505050565b60006060806000806000600660008881526020019081526020016000206000015460066000898152602001908152602001600020600101600660008a8152602001908152602001600020600201600660008b815260200190815260200160002060030154600660008c815260200190815260200160002060040154600660008d815260200190815260200160002060050154848054600181600116156101000203166002900480601f016020809104026020016040519081016040528092919081815260200182805460018160011615610100020316600290048015611c395780601f10611c0e57610100808354040283529160200191611c39565b820191906000526020600020905b815481529060010190602001808311611c1c57829003601f168201915b50505050509450838054600181600116156101000203166002900480601f016020809104026020016040519081016040528092919081815260200182805460018160011615610100020316600290048015611cd55780601f10611caa57610100808354040283529160200191611cd5565b820191906000526020600020905b815481529060010190602001808311611cb857829003601f168201915b5050505050935095509550955095509550955091939550919395565b600033600560003373ffffffffffffffffffffffffffffffffffffffff1673ffffffffffffffffffffffffffffffffffffffff16815260200190815260200160002060006101000a81548173ffffffffffffffffffffffffffffffffffffffff021916908373ffffffffffffffffffffffffffffffffffffffff160217905550600560003373ffffffffffffffffffffffffffffffffffffffff1673ffffffffffffffffffffffffffffffffffffffff16815260200190815260200160002060009054906101000a900473ffffffffffffffffffffffffffffffffffffffff16905090565b60086020528060005260406000206000915090508060000154908060010154908060020154905083565b600381815481101515611e0f57fe5b906000526020600020016000915090505481565b6000806000806000600960008781526020019081526020016000206000015460096000888152602001908152602001600020600101546009600089815260200190815260200160002060020160009054906101000a900473ffffffffffffffffffffffffffffffffffffffff16600960008a815260200190815260200160002060030154600960008b8152602001908152602001600020600401549450945094509450945091939590929450565b600060066000838152602001908152602001600020600401549050919050565b60056020528060005260406000206000915054906101000a900473ffffffffffffffffffffffffffffffffffffffff1681565b6000600380549050905090565b600a60009054906101000a900473ffffffffffffffffffffffffffffffffffffffff1681565b60096020528060005260406000206000915090508060000154908060010154908060020160009054906101000a900473ffffffffffffffffffffffffffffffffffffffff16908060030154908060040154905085565b8073ffffffffffffffffffffffffffffffffffffffff166108fc349081150290604051600060405180830381858888f19350505050158015611ff3573d6000803e3d6000fd5b5050565b600060028281548110151561200857fe5b90600052602060002001549050919050565b60028181548110151561202957fe5b906000526020600020016000915090505481565b60015481565b828054600181600116156101000203166002900490600052602060002090601f016020900481019282601f1061207c57805485556120b9565b828001600101855582156120b957600052602060002091601f016020900482015b828111156120b857825482559160010191906001019061209d565b5b5090506120c6919061214a565b5090565b828054600181600116156101000203166002900490600052602060002090601f016020900481019282601f1061210b57805160ff1916838001178555612139565b82800160010185558215612139579182015b8281111561213857825182559160200191906001019061211d565b5b509050612146919061214a565b5090565b61216c91905b80821115612168576000816000905550600101612150565b5090565b905600a165627a7a72305820dabb9cb9d9e75bc18242f83e8b235f4622ea3c347346c3deed64252b95c6ab370029",
  "source": "pragma solidity ^0.4.0;\n\ncontract Inventory{\n     \n    \n     \n   address public customer;\n   uint256 public productCount=0;\n   uint256[] public p_id;\n   uint256[] public o_id;\n   uint256[] public c_id;\n   \n    struct product{\n        uint pid;\n        string pname;\n        string pbrand;\n        uint pquantity;\n        uint pprice;\n        uint time;\n       }\n     struct productorder{\n             uint id2;\n             uint id1;\n             address cid;\n             string name;\n             string brand;\n             uint quantity;\n             uint price;\n             uint time;\n            }\n        \n       \n        \n        struct in_order{\n            uint ipid;\n            uint iquantity;\n            uint iprice;\n           }\n     struct cancellorder{\n         uint oid;\n         uint pid;\n         address c_address;\n         uint price;\n         uint time;\n     }\n                          \n    mapping(address=>address)public CUST;\n    mapping(uint=>product)public PROD;\n    mapping(uint=>productorder)public ORDER;\n    mapping(uint=>in_order)public UPDATE;\n    mapping(uint=>cancellorder)public CANCELL;\n    \n    address public owner;\n\n    function Inventory()public {\n        owner = msg.sender;\n    }\n\n    modifier onlyOwner {\n        require (owner == msg.sender);\n        _;\n    }\n    \n    function view1(uint id)public constant returns(uint){\n         return (PROD[id].pprice);\n     }\n    \n    \n    function cust()public returns(address) {\n        CUST[msg.sender] = msg.sender;\n        return CUST[msg.sender];\n    }\n    \n    function p_details(uint id,string name,string brand,uint quantity,uint price)public  payable onlyOwner   {\n        require(PROD[id].pid!=id);\n        PROD[id].pid = id;\n        PROD[id].pname = name;\n        PROD[id].pbrand = brand;\n        PROD[id].pquantity = quantity;\n        PROD[id].pprice = price;\n        PROD[id].time = now;\n        productCount++;\n        p_id.push(id);\n        \n    }  \n   \n   function getProductsCount() public view returns(uint256){\n       return p_id.length;\n   }\n\n   function getProductId(uint _id) public view returns(uint256)\n   {\n       return p_id[_id];\n   }\n\n    function order(uint id2,uint id,uint pquantity)public payable {\n        \n           require(id ==PROD[id].pid && pquantity <= PROD[id].pquantity);\n           require(msg.sender==CUST[msg.sender] );\n           ORDER[id2].id2 = id2;\n           ORDER[id2].cid = msg.sender;\n           ORDER[id2].id1=id;\n           ORDER[id2].name =PROD[id].pname ;\n           ORDER[id2].brand =  PROD[id].pbrand;\n           ORDER[id2].quantity=pquantity;\n           ORDER[id2].price = pquantity *  PROD[id].pprice; \n           ORDER[id2].time = now;\n           PROD[id].pquantity-=pquantity;\n           owner.transfer(msg.value);\n           o_id.push(id2);\n           \n    }\n    \n    function getOrderCount()public view returns(uint256){\n        return o_id.length;\n    }\n     \n   \n    function update_product(uint id,uint _quantity,uint price)public onlyOwner  {\n       \n       UPDATE[id].ipid = id;\n       UPDATE[id].iquantity = _quantity;\n       UPDATE[id].iprice = price;\n       PROD[id].pquantity+=_quantity;\n        PROD[id].pprice= price;\n       \n\n       }\n      \n         \n       function viewproduct(uint id)public constant returns(uint,string,string,uint,uint,uint){\n           \n           return(PROD[id].pid,PROD[id].pname,PROD[id].pbrand,  PROD[id].pquantity,PROD[id].pprice,PROD[id].time);\n       } \n       \n       \n       function vieworder(uint id2)public constant returns(uint,address,uint,string,uint,uint,uint){\n                  \n           return (ORDER[id2].id2,ORDER[id2].cid, ORDER[id2].id1, ORDER[id2].name , ORDER[id2].quantity,ORDER[id2].price, ORDER[id2].time);\n           \n       }\n       \n       function outOfStock(uint id)public constant returns(uint,uint){\n            return (PROD[id].pid,PROD[id].pquantity);\n       }\n       \n       function ordercancel(uint oid,uint id)public  {\n         require(msg.sender== ORDER[oid].cid && msg.sender==CUST[msg.sender] );\n         uint t =(now -  ORDER[oid].time );\n           require(t<= 3600 seconds);\n       \n         PROD[id].pquantity += ORDER[oid].quantity ;\n         ORDER[oid].quantity -= ORDER[oid].quantity; \n           CANCELL[oid].oid = oid;\n           CANCELL[oid].pid = id ;\n           CANCELL[oid]. c_address =  ORDER[oid].cid ;\n           CANCELL[oid].price =  ORDER[oid].price;\n           CANCELL[oid].time = now;\n            c_id.push(oid);\n            \n         }\n         \n         function getcancell_list()public view returns(uint256[]){\n             return c_id;\n         }\n        \n         \n         function cancel_list(uint oid)public constant returns(uint,uint,address,uint,uint){\n             return (CANCELL[oid].oid , CANCELL[oid].pid , CANCELL[oid]. c_address, CANCELL[oid].price , CANCELL[oid].time);\n         }\n    \n        function returnether(address x)public payable{\n             x .transfer(msg.value);\n        }\n        \n    }\n   \n     \n ",
  "sourcePath": "/home/mnwsoftware/projects/solidity/Inventory/contracts/Inventory.sol",
  "compiler": {
    "name": "solc",
    "version": "0.4.23+commit.124ca40d.Emscripten.clang"
  },
  "schemaVersion": "2.0.0",
  "updatedAt": "2018-05-11T10:32:03.162Z"
}