{
  "contractName": "Inventory",
  "abi": [
    {
      "constant": true,
      "inputs": [
        {
          "name": "",
          "type": "uint256"
        }
      ],
      "name": "ORDER",
      "outputs": [
        {
          "name": "id2",
          "type": "uint256"
        },
        {
          "name": "id1",
          "type": "uint256"
        },
        {
          "name": "cid",
          "type": "address"
        },
        {
          "name": "name",
          "type": "string"
        },
        {
          "name": "brand",
          "type": "string"
        },
        {
          "name": "quantity",
          "type": "uint256"
        },
        {
          "name": "price",
          "type": "uint256"
        },
        {
          "name": "time",
          "type": "uint256"
        },
        {
          "name": "status",
          "type": "uint256"
        }
      ],
      "payable": false,
      "stateMutability": "view",
      "type": "function"
    },
    {
      "constant": true,
      "inputs": [
        {
          "name": "",
          "type": "uint256"
        }
      ],
      "name": "PROD",
      "outputs": [
        {
          "name": "pid",
          "type": "uint256"
        },
        {
          "name": "pname",
          "type": "string"
        },
        {
          "name": "pbrand",
          "type": "string"
        },
        {
          "name": "pquantity",
          "type": "uint256"
        },
        {
          "name": "pprice",
          "type": "uint256"
        },
        {
          "name": "time",
          "type": "uint256"
        }
      ],
      "payable": false,
      "stateMutability": "view",
      "type": "function"
    },
    {
      "constant": true,
      "inputs": [
        {
          "name": "",
          "type": "uint256"
        }
      ],
      "name": "c_id",
      "outputs": [
        {
          "name": "",
          "type": "uint256"
        }
      ],
      "payable": false,
      "stateMutability": "view",
      "type": "function"
    },
    {
      "constant": true,
      "inputs": [],
      "name": "ordercount",
      "outputs": [
        {
          "name": "",
          "type": "uint256"
        }
      ],
      "payable": false,
      "stateMutability": "view",
      "type": "function"
    },
    {
      "constant": true,
      "inputs": [
        {
          "name": "",
          "type": "uint256"
        }
      ],
      "name": "UPDATE",
      "outputs": [
        {
          "name": "ipid",
          "type": "uint256"
        },
        {
          "name": "iquantity",
          "type": "uint256"
        },
        {
          "name": "iprice",
          "type": "uint256"
        }
      ],
      "payable": false,
      "stateMutability": "view",
      "type": "function"
    },
    {
      "constant": true,
      "inputs": [
        {
          "name": "",
          "type": "uint256"
        }
      ],
      "name": "o_id",
      "outputs": [
        {
          "name": "",
          "type": "uint256"
        }
      ],
      "payable": false,
      "stateMutability": "view",
      "type": "function"
    },
    {
      "constant": true,
      "inputs": [],
      "name": "owner",
      "outputs": [
        {
          "name": "",
          "type": "address"
        }
      ],
      "payable": false,
      "stateMutability": "view",
      "type": "function"
    },
    {
      "constant": true,
      "inputs": [
        {
          "name": "",
          "type": "uint256"
        }
      ],
      "name": "CANCELL",
      "outputs": [
        {
          "name": "oid",
          "type": "uint256"
        },
        {
          "name": "pid",
          "type": "uint256"
        },
        {
          "name": "c_address",
          "type": "address"
        },
        {
          "name": "price",
          "type": "uint256"
        },
        {
          "name": "time",
          "type": "uint256"
        }
      ],
      "payable": false,
      "stateMutability": "view",
      "type": "function"
    },
    {
      "constant": true,
      "inputs": [
        {
          "name": "",
          "type": "uint256"
        }
      ],
      "name": "p_id",
      "outputs": [
        {
          "name": "",
          "type": "uint256"
        }
      ],
      "payable": false,
      "stateMutability": "view",
      "type": "function"
    },
    {
      "constant": true,
      "inputs": [],
      "name": "productCount",
      "outputs": [
        {
          "name": "",
          "type": "uint256"
        }
      ],
      "payable": false,
      "stateMutability": "view",
      "type": "function"
    },
    {
      "inputs": [],
      "payable": true,
      "stateMutability": "payable",
      "type": "constructor"
    },
    {
      "constant": true,
      "inputs": [
        {
          "name": "id",
          "type": "uint256"
        }
      ],
      "name": "view1",
      "outputs": [
        {
          "name": "",
          "type": "uint256"
        }
      ],
      "payable": false,
      "stateMutability": "view",
      "type": "function"
    },
    {
      "constant": false,
      "inputs": [
        {
          "name": "id",
          "type": "uint256"
        },
        {
          "name": "name",
          "type": "string"
        },
        {
          "name": "brand",
          "type": "string"
        },
        {
          "name": "quantity",
          "type": "uint256"
        },
        {
          "name": "price",
          "type": "uint256"
        }
      ],
      "name": "p_details",
      "outputs": [],
      "payable": true,
      "stateMutability": "payable",
      "type": "function"
    },
    {
      "constant": true,
      "inputs": [],
      "name": "getProductsCount",
      "outputs": [
        {
          "name": "",
          "type": "uint256"
        }
      ],
      "payable": false,
      "stateMutability": "view",
      "type": "function"
    },
    {
      "constant": true,
      "inputs": [
        {
          "name": "_id",
          "type": "uint256"
        }
      ],
      "name": "getProductId",
      "outputs": [
        {
          "name": "",
          "type": "uint256"
        }
      ],
      "payable": false,
      "stateMutability": "view",
      "type": "function"
    },
    {
      "constant": false,
      "inputs": [
        {
          "name": "id2",
          "type": "uint256"
        },
        {
          "name": "id",
          "type": "uint256"
        },
        {
          "name": "pquantity",
          "type": "uint256"
        }
      ],
      "name": "order",
      "outputs": [],
      "payable": true,
      "stateMutability": "payable",
      "type": "function"
    },
    {
      "constant": true,
      "inputs": [],
      "name": "getOrderCount",
      "outputs": [
        {
          "name": "",
          "type": "uint256"
        }
      ],
      "payable": false,
      "stateMutability": "view",
      "type": "function"
    },
    {
      "constant": false,
      "inputs": [
        {
          "name": "id",
          "type": "uint256"
        },
        {
          "name": "_quantity",
          "type": "uint256"
        },
        {
          "name": "price",
          "type": "uint256"
        }
      ],
      "name": "update_product",
      "outputs": [],
      "payable": false,
      "stateMutability": "nonpayable",
      "type": "function"
    },
    {
      "constant": true,
      "inputs": [
        {
          "name": "id",
          "type": "uint256"
        }
      ],
      "name": "viewproduct",
      "outputs": [
        {
          "name": "",
          "type": "uint256"
        },
        {
          "name": "",
          "type": "string"
        },
        {
          "name": "",
          "type": "string"
        },
        {
          "name": "",
          "type": "uint256"
        },
        {
          "name": "",
          "type": "uint256"
        },
        {
          "name": "",
          "type": "uint256"
        }
      ],
      "payable": false,
      "stateMutability": "view",
      "type": "function"
    },
    {
      "constant": true,
      "inputs": [
        {
          "name": "id2",
          "type": "uint256"
        }
      ],
      "name": "vieworder",
      "outputs": [
        {
          "name": "",
          "type": "uint256"
        },
        {
          "name": "",
          "type": "address"
        },
        {
          "name": "",
          "type": "uint256"
        },
        {
          "name": "",
          "type": "uint256"
        },
        {
          "name": "",
          "type": "uint256"
        },
        {
          "name": "",
          "type": "uint256"
        },
        {
          "name": "",
          "type": "uint256"
        }
      ],
      "payable": false,
      "stateMutability": "view",
      "type": "function"
    },
    {
      "constant": true,
      "inputs": [
        {
          "name": "id",
          "type": "uint256"
        }
      ],
      "name": "outOfStock",
      "outputs": [
        {
          "name": "",
          "type": "uint256"
        },
        {
          "name": "",
          "type": "uint256"
        },
        {
          "name": "",
          "type": "uint256"
        }
      ],
      "payable": false,
      "stateMutability": "view",
      "type": "function"
    },
    {
      "constant": false,
      "inputs": [
        {
          "name": "oid",
          "type": "uint256"
        },
        {
          "name": "id",
          "type": "uint256"
        }
      ],
      "name": "ordercancel",
      "outputs": [],
      "payable": false,
      "stateMutability": "nonpayable",
      "type": "function"
    },
    {
      "constant": true,
      "inputs": [],
      "name": "getcancell_list",
      "outputs": [
        {
          "name": "",
          "type": "uint256[]"
        }
      ],
      "payable": false,
      "stateMutability": "view",
      "type": "function"
    },
    {
      "constant": true,
      "inputs": [
        {
          "name": "oid",
          "type": "uint256"
        }
      ],
      "name": "cancel_list",
      "outputs": [
        {
          "name": "",
          "type": "uint256"
        },
        {
          "name": "",
          "type": "uint256"
        },
        {
          "name": "",
          "type": "address"
        },
        {
          "name": "",
          "type": "uint256"
        },
        {
          "name": "",
          "type": "uint256"
        }
      ],
      "payable": false,
      "stateMutability": "view",
      "type": "function"
    },
    {
      "constant": false,
      "inputs": [
        {
          "name": "newowner",
          "type": "address"
        }
      ],
      "name": "transferOwnership",
      "outputs": [],
      "payable": true,
      "stateMutability": "payable",
      "type": "function"
    },
    {
      "constant": true,
      "inputs": [],
      "name": "getbalance",
      "outputs": [
        {
          "name": "",
          "type": "uint256"
        }
      ],
      "payable": false,
      "stateMutability": "view",
      "type": "function"
    },
    {
      "constant": false,
      "inputs": [
        {
          "name": "amount",
          "type": "uint256"
        }
      ],
      "name": "withdraw",
      "outputs": [
        {
          "name": "",
          "type": "bool"
        }
      ],
      "payable": true,
      "stateMutability": "payable",
      "type": "function"
    }
  ],
  "bytecode": "0x608060405260008055600060015533600960006101000a81548173ffffffffffffffffffffffffffffffffffffffff021916908373ffffffffffffffffffffffffffffffffffffffff160217905550611f598061005d6000396000f300608060405260043610610154576000357c0100000000000000000000000000000000000000000000000000000000900463ffffffff16806303c89492146101595780630e882129146102c85780631a79b79a146102fc578063218915e5146103685780632ad0eaf41461039f5780632e1a7d4d146104cd57806339a5b45414610505578063481009d91461054657806349bc60c0146105dd5780634d9b3d5d1461062c5780635786fd40146106575780635ae637cc146106825780635b4e6081146107425780636a4506521461076d578063721a13e9146107ae57806378796426146108dc5780637f230f061461092b57806386de90531461096c578063870307c5146109f55780638d0a5fbb14610a365780638da5cb5b14610a6157806392b1a83d14610ab85780639f77a60514610b41578063aece059014610b82578063e0f6ef8714610bc3578063f2fde38b14610bee575b600080fd5b34801561016557600080fd5b5061018460048036038101908080359060200190929190505050610c24565b604051808a81526020018981526020018873ffffffffffffffffffffffffffffffffffffffff1673ffffffffffffffffffffffffffffffffffffffff1681526020018060200180602001878152602001868152602001858152602001848152602001838103835289818151815260200191508051906020019080838360005b8381101561021e578082015181840152602081019050610203565b50505050905090810190601f16801561024b5780820380516001836020036101000a031916815260200191505b50838103825288818151815260200191508051906020019080838360005b83811015610284578082015181840152602081019050610269565b50505050905090810190601f1680156102b15780820380516001836020036101000a031916815260200191505b509b50505050505050505050505060405180910390f35b6102fa600480360381019080803590602001909291908035906020019092919080359060200190929190505050610dc2565b005b34801561030857600080fd5b50610311611032565b6040518080602001828103825283818151815260200191508051906020019060200280838360005b83811015610354578082015181840152602081019050610339565b505050509050019250505060405180910390f35b34801561037457600080fd5b5061039d600480360381019080803590602001909291908035906020019092919050505061108a565b005b3480156103ab57600080fd5b506103ca60048036038101908080359060200190929190505050611319565b604051808781526020018060200180602001868152602001858152602001848152602001838103835288818151815260200191508051906020019080838360005b8381101561042657808201518184015260208101905061040b565b50505050905090810190601f1680156104535780820380516001836020036101000a031916815260200191505b50838103825287818151815260200191508051906020019080838360005b8381101561048c578082015181840152602081019050610471565b50505050905090810190601f1680156104b95780820380516001836020036101000a031916815260200191505b509850505050505050505060405180910390f35b6104eb60048036038101908080359060200190929190505050611485565b604051808215151515815260200191505060405180910390f35b34801561051157600080fd5b5061053060048036038101908080359060200190929190505050611589565b6040518082815260200191505060405180910390f35b34801561055257600080fd5b50610571600480360381019080803590602001909291905050506115ac565b604051808881526020018773ffffffffffffffffffffffffffffffffffffffff1673ffffffffffffffffffffffffffffffffffffffff16815260200186815260200185815260200184815260200183815260200182815260200197505050505050505060405180910390f35b3480156105e957600080fd5b5061060860048036038101908080359060200190929190505050611691565b60405180848152602001838152602001828152602001935050505060405180910390f35b34801561063857600080fd5b506106416116e8565b6040518082815260200191505060405180910390f35b34801561066357600080fd5b5061066c611707565b6040518082815260200191505060405180910390f35b61074060048036038101908080359060200190929190803590602001908201803590602001908080601f0160208091040260200160405190810160405280939291908181526020018383808284378201915050505050509192919290803590602001908201803590602001908080601f01602080910402602001604051908101604052809392919081815260200183838082843782019150505050505091929192908035906020019092919080359060200190929190505050611714565b005b34801561074e57600080fd5b5061075761189b565b6040518082815260200191505060405180910390f35b34801561077957600080fd5b506107ac6004803603810190808035906020019092919080359060200190929190803590602001909291905050506118a1565b005b3480156107ba57600080fd5b506107d960048036038101908080359060200190929190505050611992565b604051808781526020018060200180602001868152602001858152602001848152602001838103835288818151815260200191508051906020019080838360005b8381101561083557808201518184015260208101905061081a565b50505050905090810190601f1680156108625780820380516001836020036101000a031916815260200191505b50838103825287818151815260200191508051906020019080838360005b8381101561089b578082015181840152602081019050610880565b50505050905090810190601f1680156108c85780820380516001836020036101000a031916815260200191505b509850505050505050505060405180910390f35b3480156108e857600080fd5b5061090760048036038101908080359060200190929190505050611b71565b60405180848152602001838152602001828152602001935050505060405180910390f35b34801561093757600080fd5b5061095660048036038101908080359060200190929190505050611b9b565b6040518082815260200191505060405180910390f35b34801561097857600080fd5b5061099760048036038101908080359060200190929190505050611bbe565b604051808681526020018581526020018473ffffffffffffffffffffffffffffffffffffffff1673ffffffffffffffffffffffffffffffffffffffff1681526020018381526020018281526020019550505050505060405180910390f35b348015610a0157600080fd5b50610a2060048036038101908080359060200190929190505050611c6c565b6040518082815260200191505060405180910390f35b348015610a4257600080fd5b50610a4b611c8c565b6040518082815260200191505060405180910390f35b348015610a6d57600080fd5b50610a76611c99565b604051808273ffffffffffffffffffffffffffffffffffffffff1673ffffffffffffffffffffffffffffffffffffffff16815260200191505060405180910390f35b348015610ac457600080fd5b50610ae360048036038101908080359060200190929190505050611cbf565b604051808681526020018581526020018473ffffffffffffffffffffffffffffffffffffffff1673ffffffffffffffffffffffffffffffffffffffff1681526020018381526020018281526020019550505050505060405180910390f35b348015610b4d57600080fd5b50610b6c60048036038101908080359060200190929190505050611d15565b6040518082815260200191505060405180910390f35b348015610b8e57600080fd5b50610bad60048036038101908080359060200190929190505050611d38565b6040518082815260200191505060405180910390f35b348015610bcf57600080fd5b50610bd8611d5b565b6040518082815260200191505060405180910390f35b610c22600480360381019080803573ffffffffffffffffffffffffffffffffffffffff169060200190929190505050611d61565b005b60066020528060005260406000206000915090508060000154908060010154908060020160009054906101000a900473ffffffffffffffffffffffffffffffffffffffff1690806003018054600181600116156101000203166002900480601f016020809104026020016040519081016040528092919081815260200182805460018160011615610100020316600290048015610d025780601f10610cd757610100808354040283529160200191610d02565b820191906000526020600020905b815481529060010190602001808311610ce557829003601f168201915b505050505090806004018054600181600116156101000203166002900480601f016020809104026020016040519081016040528092919081815260200182805460018160011615610100020316600290048015610da05780601f10610d7557610100808354040283529160200191610da0565b820191906000526020600020905b815481529060010190602001808311610d8357829003601f168201915b5050505050908060050154908060060154908060070154908060080154905089565b600560008381526020019081526020016000206000015482148015610dfd575060056000838152602001908152602001600020600301548111155b1515610e0857600080fd5b826006600085815260200190815260200160002060000181905550336006600085815260200190815260200160002060020160006101000a81548173ffffffffffffffffffffffffffffffffffffffff021916908373ffffffffffffffffffffffffffffffffffffffff16021790555081600660008581526020019081526020016000206001018190555060056000838152602001908152602001600020600101600660008581526020019081526020016000206003019080546001816001161561010002031660029004610ede929190611e01565b5060056000838152602001908152602001600020600201600660008581526020019081526020016000206004019080546001816001161561010002031660029004610f2a929190611e01565b50806006600085815260200190815260200160002060050181905550600560008381526020019081526020016000206004015481026006600085815260200190815260200160002060060181905550426006600085815260200190815260200160002060070181905550600160066000858152602001908152602001600020600801819055508060056000848152602001908152602001600020600301600082825403925050819055503460066000858152602001908152602001600020600601819055506003839080600181540180825580915050906001820390600052602060002001600090919290919091505550600160008154809291906001019190505550505050565b6060600480548060200260200160405190810160405280929190818152602001828054801561108057602002820191906000526020600020905b81548152602001906001019080831161106c575b5050505050905090565b60006006600084815260200190815260200160002060020160009054906101000a900473ffffffffffffffffffffffffffffffffffffffff1673ffffffffffffffffffffffffffffffffffffffff163373ffffffffffffffffffffffffffffffffffffffff161415156110fc57600080fd5b600660008481526020019081526020016000206007015442039050610e10811115151561112857600080fd5b60066000848152602001908152602001600020600501546005600084815260200190815260200160002060030160008282540192505081905550600060066000858152602001908152602001600020600801819055508260086000858152602001908152602001600020600001819055508160086000858152602001908152602001600020600101819055506006600084815260200190815260200160002060020160009054906101000a900473ffffffffffffffffffffffffffffffffffffffff166008600085815260200190815260200160002060020160006101000a81548173ffffffffffffffffffffffffffffffffffffffff021916908373ffffffffffffffffffffffffffffffffffffffff160217905550600660008481526020019081526020016000206006015460086000858152602001908152602001600020600301819055504260086000858152602001908152602001600020600401819055503373ffffffffffffffffffffffffffffffffffffffff166108fc60066000868152602001908152602001600020600601549081150290604051600060405180830381858888f193505050501580156112e7573d6000803e3d6000fd5b506004839080600181540180825580915050906001820390600052602060002001600090919290919091505550505050565b6005602052806000526040600020600091509050806000015490806001018054600181600116156101000203166002900480601f0160208091040260200160405190810160405280929190818152602001828054600181600116156101000203166002900480156113cb5780601f106113a0576101008083540402835291602001916113cb565b820191906000526020600020905b8154815290600101906020018083116113ae57829003601f168201915b505050505090806002018054600181600116156101000203166002900480601f0160208091040260200160405190810160405280929190818152602001828054600181600116156101000203166002900480156114695780601f1061143e57610100808354040283529160200191611469565b820191906000526020600020905b81548152906001019060200180831161144c57829003601f168201915b5050505050908060030154908060040154908060050154905086565b6000803373ffffffffffffffffffffffffffffffffffffffff16600960009054906101000a900473ffffffffffffffffffffffffffffffffffffffff1673ffffffffffffffffffffffffffffffffffffffff161415156114e457600080fd5b670de0b6b3a7640000830290503073ffffffffffffffffffffffffffffffffffffffff16318110151561151657600080fd5b600960009054906101000a900473ffffffffffffffffffffffffffffffffffffffff1673ffffffffffffffffffffffffffffffffffffffff166108fc829081150290604051600060405180830381858888f1935050505015801561157e573d6000803e3d6000fd5b506001915050919050565b60048181548110151561159857fe5b906000526020600020016000915090505481565b60008060008060008060006006600089815260200190815260200160002060000154600660008a815260200190815260200160002060020160009054906101000a900473ffffffffffffffffffffffffffffffffffffffff16600660008b815260200190815260200160002060010154600660008c815260200190815260200160002060050154600660008d815260200190815260200160002060060154600660008e815260200190815260200160002060070154600660008f8152602001908152602001600020600801549650965096509650965096509650919395979092949650565b60008060006005600085815260200190815260200160002060000154600560008681526020019081526020016000206003015460056000878152602001908152602001600020600401549250925092509193909250565b60003073ffffffffffffffffffffffffffffffffffffffff1631905090565b6000600280549050905090565b3373ffffffffffffffffffffffffffffffffffffffff16600960009054906101000a900473ffffffffffffffffffffffffffffffffffffffff1673ffffffffffffffffffffffffffffffffffffffff1614151561177057600080fd5b8460056000878152602001908152602001600020600001541415151561179557600080fd5b846005600087815260200190815260200160002060000181905550836005600087815260200190815260200160002060010190805190602001906117da929190611e88565b5082600560008781526020019081526020016000206002019080519060200190611805929190611e88565b50816005600087815260200190815260200160002060030181905550806005600087815260200190815260200160002060040181905550426005600087815260200190815260200160002060050181905550600285908060018154018082558091505090600182039060005260206000200160009091929091909150555060008081548092919060010191905055505050505050565b60015481565b3373ffffffffffffffffffffffffffffffffffffffff16600960009054906101000a900473ffffffffffffffffffffffffffffffffffffffff1673ffffffffffffffffffffffffffffffffffffffff161415156118fd57600080fd5b826007600085815260200190815260200160002060000181905550816007600085815260200190815260200160002060010181905550806007600085815260200190815260200160002060020181905550816005600085815260200190815260200160002060030160008282540192505081905550806005600085815260200190815260200160002060040181905550505050565b60006060806000806000600560008881526020019081526020016000206000015460056000898152602001908152602001600020600101600560008a8152602001908152602001600020600201600560008b815260200190815260200160002060030154600560008c815260200190815260200160002060040154600560008d815260200190815260200160002060050154848054600181600116156101000203166002900480601f016020809104026020016040519081016040528092919081815260200182805460018160011615610100020316600290048015611ab95780601f10611a8e57610100808354040283529160200191611ab9565b820191906000526020600020905b815481529060010190602001808311611a9c57829003601f168201915b50505050509450838054600181600116156101000203166002900480601f016020809104026020016040519081016040528092919081815260200182805460018160011615610100020316600290048015611b555780601f10611b2a57610100808354040283529160200191611b55565b820191906000526020600020905b815481529060010190602001808311611b3857829003601f168201915b5050505050935095509550955095509550955091939550919395565b60076020528060005260406000206000915090508060000154908060010154908060020154905083565b600381815481101515611baa57fe5b906000526020600020016000915090505481565b6000806000806000600860008781526020019081526020016000206000015460086000888152602001908152602001600020600101546008600089815260200190815260200160002060020160009054906101000a900473ffffffffffffffffffffffffffffffffffffffff16600860008a815260200190815260200160002060030154600860008b8152602001908152602001600020600401549450945094509450945091939590929450565b600060056000838152602001908152602001600020600401549050919050565b6000600380549050905090565b600960009054906101000a900473ffffffffffffffffffffffffffffffffffffffff1681565b60086020528060005260406000206000915090508060000154908060010154908060020160009054906101000a900473ffffffffffffffffffffffffffffffffffffffff16908060030154908060040154905085565b6000600282815481101515611d2657fe5b90600052602060002001549050919050565b600281815481101515611d4757fe5b906000526020600020016000915090505481565b60005481565b3373ffffffffffffffffffffffffffffffffffffffff16600960009054906101000a900473ffffffffffffffffffffffffffffffffffffffff1673ffffffffffffffffffffffffffffffffffffffff16141515611dbd57600080fd5b80600960006101000a81548173ffffffffffffffffffffffffffffffffffffffff021916908373ffffffffffffffffffffffffffffffffffffffff16021790555050565b828054600181600116156101000203166002900490600052602060002090601f016020900481019282601f10611e3a5780548555611e77565b82800160010185558215611e7757600052602060002091601f016020900482015b82811115611e76578254825591600101919060010190611e5b565b5b509050611e849190611f08565b5090565b828054600181600116156101000203166002900490600052602060002090601f016020900481019282601f10611ec957805160ff1916838001178555611ef7565b82800160010185558215611ef7579182015b82811115611ef6578251825591602001919060010190611edb565b5b509050611f049190611f08565b5090565b611f2a91905b80821115611f26576000816000905550600101611f0e565b5090565b905600a165627a7a723058206a2d36b03807fba80a450ba2f901d8a04f3e23e32ab57e24f1c52564eacd594f0029",
  "source": "pragma solidity ^0.4.0;\r\n\r\ncontract Inventory{\r\n     \r\n   uint256 public productCount=0;\r\n   uint256 public ordercount=0;\r\n   uint256[] public p_id;\r\n   uint256[] public o_id;\r\n   uint256[] public c_id;\r\n   \r\n    struct product{\r\n        uint pid;\r\n        string pname;\r\n        string pbrand;\r\n        uint pquantity;\r\n        uint pprice;\r\n        uint time; \r\n       }\r\n     struct productorder{\r\n             uint id2;\r\n             uint id1;\r\n             address cid;\r\n             string name;\r\n             string brand;\r\n             uint quantity;\r\n             uint price;\r\n             uint time;\r\n             uint status;\r\n            \r\n            }\r\n        \r\n       \r\n        \r\n        struct in_order{\r\n            uint ipid;\r\n            uint iquantity;\r\n            uint iprice;\r\n           }\r\n     struct cancellorder{\r\n         uint oid;\r\n         uint pid;\r\n         address c_address;\r\n         uint price;\r\n         uint time;\r\n     }\r\n                          \r\n    \r\n    mapping(uint=>product)public PROD;\r\n    mapping(uint=>productorder)public ORDER;\r\n    mapping(uint=>in_order)public UPDATE;\r\n    mapping(uint=>cancellorder)public CANCELL;\r\n    \r\n    address public owner;\r\n\r\n    constructor() payable public {\r\n        owner = msg.sender;\r\n    }\r\n\r\n    modifier onlyOwner {\r\n        require (owner == msg.sender);\r\n        _;\r\n    }\r\n    \r\n    function view1(uint id)public constant returns(uint){\r\n         return (PROD[id].pprice);\r\n     }\r\n    \r\n    function p_details(uint id,string name,string brand,uint quantity,uint price)public  payable onlyOwner   {\r\n        require(PROD[id].pid!=id);\r\n        PROD[id].pid = id;\r\n        PROD[id].pname = name;\r\n        PROD[id].pbrand = brand;\r\n        PROD[id].pquantity = quantity;\r\n        PROD[id].pprice = price;\r\n        PROD[id].time = now;\r\n        p_id.push(id);\r\n        productCount++;\r\n    }  \r\n   \r\n   function getProductsCount() public view returns(uint256){\r\n       return p_id.length;\r\n   }\r\n\r\n   function getProductId(uint _id) public view returns(uint256)\r\n   {\r\n       return p_id[_id];\r\n   }\r\n\r\n    function order(uint id2,uint id,uint pquantity)public payable {\r\n        \r\n           require(id ==PROD[id].pid && pquantity <= PROD[id].pquantity);\r\n           ORDER[id2].id2 = id2;\r\n           ORDER[id2].cid = msg.sender;\r\n           ORDER[id2].id1=id;\r\n           ORDER[id2].name =PROD[id].pname ;\r\n           ORDER[id2].brand =  PROD[id].pbrand;\r\n           ORDER[id2].quantity=pquantity;\r\n           ORDER[id2].price = pquantity *  PROD[id].pprice; \r\n           ORDER[id2].time = now;\r\n           ORDER[id2].status = 1;\r\n           PROD[id].pquantity-=pquantity;\r\n           ORDER[id2].price = msg.value;\r\n           o_id.push(id2);\r\n           ordercount++;\r\n          \r\n           \r\n    }\r\n    \r\n    function getOrderCount()public view returns(uint256){\r\n        return o_id.length;\r\n    }\r\n     \r\n   \r\n    function update_product(uint id,uint _quantity,uint price)public onlyOwner  {\r\n       \r\n       UPDATE[id].ipid = id;\r\n       UPDATE[id].iquantity = _quantity;\r\n       UPDATE[id].iprice = price;\r\n       PROD[id].pquantity+=_quantity;\r\n        PROD[id].pprice= price;\r\n       \r\n\r\n       }\r\n      \r\n         \r\n       function viewproduct(uint id)public constant returns(uint,string,string,uint,uint,uint){\r\n           \r\n           return(PROD[id].pid,PROD[id].pname,PROD[id].pbrand,  PROD[id].pquantity,PROD[id].pprice,PROD[id].time);\r\n       } \r\n       \r\n       \r\n       function vieworder(uint id2)public constant returns(uint,address,uint,uint,uint,uint,uint){\r\n                  \r\n           return (ORDER[id2].id2,ORDER[id2].cid, ORDER[id2].id1,  ORDER[id2].quantity,ORDER[id2].price, ORDER[id2].time, ORDER[id2].status);\r\n           \r\n       }\r\n       \r\n       function outOfStock(uint id)public constant returns(uint,uint,uint){\r\n            return (PROD[id].pid,PROD[id].pquantity,PROD[id].pprice);\r\n       }\r\n       \r\n       function ordercancel(uint oid,uint id)public{\r\n         require(msg.sender== ORDER[oid].cid);\r\n         uint t =(now -  ORDER[oid].time );\r\n           require(t<= 3600 seconds);\r\n       \r\n            PROD[id].pquantity += ORDER[oid].quantity ;\r\n            ORDER[oid].status = 0;\r\n           CANCELL[oid].oid = oid;\r\n           CANCELL[oid].pid = id ;\r\n           CANCELL[oid]. c_address =  ORDER[oid].cid ;\r\n           CANCELL[oid].price =  ORDER[oid].price;\r\n           CANCELL[oid].time = now;\r\n                                   \r\n           msg.sender.transfer(ORDER[oid].price);\r\n            c_id.push(oid);\r\n            \r\n            \r\n         }\r\n         \r\n         function getcancell_list()public view returns(uint256[]){\r\n             return c_id;\r\n         }\r\n        \r\n         \r\n         function cancel_list(uint oid)public constant returns(uint,uint,address,uint,uint){\r\n             return (CANCELL[oid].oid , CANCELL[oid].pid , CANCELL[oid]. c_address, CANCELL[oid].price , CANCELL[oid].time);\r\n         }\r\n    \r\n        function transferOwnership(address newowner) payable public onlyOwner {\r\n            owner = newowner;\r\n        }\r\n        function getbalance()public constant returns(uint256){\r\n            return  address(this).balance;\r\n        }\r\n        \r\n        function withdraw(uint amount)payable public onlyOwner returns(bool) {\r\n            uint x=amount *1 ether;\r\n            require(x<address(this).balance);\r\n            owner.transfer(x);\r\n            return true;\r\n        }\r\n        \r\n        \r\n\r\n\r\n    }\r\n   \r\n     \r\n ",
  "sourcePath": "D:\\inventorymaster\\contracts\\Inventory.sol",
  "compiler": {
    "name": "solc",
    "version": "0.4.23+commit.124ca40d.Emscripten.clang"
  },
  "schemaVersion": "2.0.0",
  "updatedAt": "2018-05-15T07:10:52.449Z"
}