{
  "contractName": "Inventory",
  "abi": [
    {
      "constant": true,
      "inputs": [
        {
          "name": "",
          "type": "uint256"
        }
      ],
      "name": "ORDER",
      "outputs": [
        {
          "name": "id2",
          "type": "uint256"
        },
        {
          "name": "id1",
          "type": "uint256"
        },
        {
          "name": "cid",
          "type": "address"
        },
        {
          "name": "name",
          "type": "string"
        },
        {
          "name": "brand",
          "type": "string"
        },
        {
          "name": "quantity",
          "type": "uint256"
        },
        {
          "name": "price",
          "type": "uint256"
        },
        {
          "name": "time",
          "type": "uint256"
        }
      ],
      "payable": false,
      "stateMutability": "view",
      "type": "function"
    },
    {
      "constant": true,
      "inputs": [],
      "name": "name",
      "outputs": [
        {
          "name": "",
          "type": "string"
        }
      ],
      "payable": false,
      "stateMutability": "view",
      "type": "function"
    },
    {
      "constant": false,
      "inputs": [],
      "name": "sendEther",
      "outputs": [
        {
          "name": "",
          "type": "uint256"
        }
      ],
      "payable": true,
      "stateMutability": "payable",
      "type": "function"
    },
    {
      "constant": true,
      "inputs": [],
      "name": "totalSupply",
      "outputs": [
        {
          "name": "",
          "type": "uint256"
        }
      ],
      "payable": false,
      "stateMutability": "view",
      "type": "function"
    },
    {
      "constant": true,
      "inputs": [
        {
          "name": "",
          "type": "address"
        }
      ],
      "name": "balances",
      "outputs": [
        {
          "name": "",
          "type": "uint256"
        }
      ],
      "payable": false,
      "stateMutability": "view",
      "type": "function"
    },
    {
      "constant": true,
      "inputs": [],
      "name": "customer",
      "outputs": [
        {
          "name": "",
          "type": "address"
        }
      ],
      "payable": false,
      "stateMutability": "view",
      "type": "function"
    },
    {
      "constant": true,
      "inputs": [
        {
          "name": "",
          "type": "uint256"
        }
      ],
      "name": "PROD",
      "outputs": [
        {
          "name": "pid",
          "type": "uint256"
        },
        {
          "name": "pname",
          "type": "string"
        },
        {
          "name": "pbrand",
          "type": "string"
        },
        {
          "name": "pquantity",
          "type": "uint256"
        },
        {
          "name": "pprice",
          "type": "uint256"
        },
        {
          "name": "time",
          "type": "uint256"
        }
      ],
      "payable": false,
      "stateMutability": "view",
      "type": "function"
    },
    {
      "constant": true,
      "inputs": [],
      "name": "rate",
      "outputs": [
        {
          "name": "",
          "type": "uint256"
        }
      ],
      "payable": false,
      "stateMutability": "view",
      "type": "function"
    },
    {
      "constant": true,
      "inputs": [],
      "name": "decimals",
      "outputs": [
        {
          "name": "",
          "type": "uint256"
        }
      ],
      "payable": false,
      "stateMutability": "view",
      "type": "function"
    },
    {
      "constant": true,
      "inputs": [
        {
          "name": "",
          "type": "uint256"
        }
      ],
      "name": "c_id",
      "outputs": [
        {
          "name": "",
          "type": "uint256"
        }
      ],
      "payable": false,
      "stateMutability": "view",
      "type": "function"
    },
    {
      "constant": true,
      "inputs": [],
      "name": "standard",
      "outputs": [
        {
          "name": "",
          "type": "string"
        }
      ],
      "payable": false,
      "stateMutability": "view",
      "type": "function"
    },
    {
      "constant": true,
      "inputs": [
        {
          "name": "_owner",
          "type": "address"
        }
      ],
      "name": "balanceOf",
      "outputs": [
        {
          "name": "balance",
          "type": "uint256"
        }
      ],
      "payable": false,
      "stateMutability": "view",
      "type": "function"
    },
    {
      "constant": true,
      "inputs": [
        {
          "name": "",
          "type": "uint256"
        }
      ],
      "name": "UPDATE",
      "outputs": [
        {
          "name": "ipid",
          "type": "uint256"
        },
        {
          "name": "iquantity",
          "type": "uint256"
        },
        {
          "name": "iprice",
          "type": "uint256"
        }
      ],
      "payable": false,
      "stateMutability": "view",
      "type": "function"
    },
    {
      "constant": true,
      "inputs": [
        {
          "name": "",
          "type": "uint256"
        }
      ],
      "name": "o_id",
      "outputs": [
        {
          "name": "",
          "type": "uint256"
        }
      ],
      "payable": false,
      "stateMutability": "view",
      "type": "function"
    },
    {
      "constant": true,
      "inputs": [
        {
          "name": "",
          "type": "address"
        }
      ],
      "name": "CUST",
      "outputs": [
        {
          "name": "",
          "type": "address"
        }
      ],
      "payable": false,
      "stateMutability": "view",
      "type": "function"
    },
    {
      "constant": true,
      "inputs": [],
      "name": "owner",
      "outputs": [
        {
          "name": "",
          "type": "address"
        }
      ],
      "payable": false,
      "stateMutability": "view",
      "type": "function"
    },
    {
      "constant": true,
      "inputs": [
        {
          "name": "",
          "type": "uint256"
        }
      ],
      "name": "CANCELL",
      "outputs": [
        {
          "name": "oid",
          "type": "uint256"
        },
        {
          "name": "pid",
          "type": "uint256"
        },
        {
          "name": "c_address",
          "type": "address"
        },
        {
          "name": "price",
          "type": "uint256"
        },
        {
          "name": "time",
          "type": "uint256"
        }
      ],
      "payable": false,
      "stateMutability": "view",
      "type": "function"
    },
    {
      "constant": true,
      "inputs": [],
      "name": "symbol",
      "outputs": [
        {
          "name": "",
          "type": "string"
        }
      ],
      "payable": false,
      "stateMutability": "view",
      "type": "function"
    },
    {
      "constant": false,
      "inputs": [
        {
          "name": "_to",
          "type": "address"
        },
        {
          "name": "_value",
          "type": "uint256"
        }
      ],
      "name": "transfer",
      "outputs": [
        {
          "name": "",
          "type": "bool"
        }
      ],
      "payable": false,
      "stateMutability": "nonpayable",
      "type": "function"
    },
    {
      "constant": true,
      "inputs": [
        {
          "name": "",
          "type": "uint256"
        }
      ],
      "name": "p_id",
      "outputs": [
        {
          "name": "",
          "type": "uint256"
        }
      ],
      "payable": false,
      "stateMutability": "view",
      "type": "function"
    },
    {
      "constant": true,
      "inputs": [],
      "name": "productCount",
      "outputs": [
        {
          "name": "",
          "type": "uint256"
        }
      ],
      "payable": false,
      "stateMutability": "view",
      "type": "function"
    },
    {
      "constant": true,
      "inputs": [
        {
          "name": "id",
          "type": "uint256"
        }
      ],
      "name": "view1",
      "outputs": [
        {
          "name": "",
          "type": "uint256"
        }
      ],
      "payable": false,
      "stateMutability": "view",
      "type": "function"
    },
    {
      "constant": false,
      "inputs": [],
      "name": "cust",
      "outputs": [
        {
          "name": "",
          "type": "address"
        }
      ],
      "payable": false,
      "stateMutability": "nonpayable",
      "type": "function"
    },
    {
      "constant": false,
      "inputs": [
        {
          "name": "id",
          "type": "uint256"
        },
        {
          "name": "name",
          "type": "string"
        },
        {
          "name": "brand",
          "type": "string"
        },
        {
          "name": "quantity",
          "type": "uint256"
        },
        {
          "name": "price",
          "type": "uint256"
        }
      ],
      "name": "p_details",
      "outputs": [],
      "payable": true,
      "stateMutability": "payable",
      "type": "function"
    },
    {
      "constant": true,
      "inputs": [],
      "name": "getProductsCount",
      "outputs": [
        {
          "name": "",
          "type": "uint256"
        }
      ],
      "payable": false,
      "stateMutability": "view",
      "type": "function"
    },
    {
      "constant": true,
      "inputs": [
        {
          "name": "_id",
          "type": "uint256"
        }
      ],
      "name": "getProductId",
      "outputs": [
        {
          "name": "",
          "type": "uint256"
        }
      ],
      "payable": false,
      "stateMutability": "view",
      "type": "function"
    },
    {
      "constant": false,
      "inputs": [
        {
          "name": "id2",
          "type": "uint256"
        },
        {
          "name": "id",
          "type": "uint256"
        },
        {
          "name": "pquantity",
          "type": "uint256"
        }
      ],
      "name": "order",
      "outputs": [],
      "payable": true,
      "stateMutability": "payable",
      "type": "function"
    },
    {
      "constant": true,
      "inputs": [],
      "name": "getOrderCount",
      "outputs": [
        {
          "name": "",
          "type": "uint256"
        }
      ],
      "payable": false,
      "stateMutability": "view",
      "type": "function"
    },
    {
      "constant": false,
      "inputs": [
        {
          "name": "id",
          "type": "uint256"
        },
        {
          "name": "_quantity",
          "type": "uint256"
        },
        {
          "name": "price",
          "type": "uint256"
        }
      ],
      "name": "update_product",
      "outputs": [],
      "payable": false,
      "stateMutability": "nonpayable",
      "type": "function"
    },
    {
      "constant": true,
      "inputs": [
        {
          "name": "id",
          "type": "uint256"
        }
      ],
      "name": "viewproduct",
      "outputs": [
        {
          "name": "",
          "type": "uint256"
        },
        {
          "name": "",
          "type": "string"
        },
        {
          "name": "",
          "type": "string"
        },
        {
          "name": "",
          "type": "uint256"
        },
        {
          "name": "",
          "type": "uint256"
        },
        {
          "name": "",
          "type": "uint256"
        }
      ],
      "payable": false,
      "stateMutability": "view",
      "type": "function"
    },
    {
      "constant": true,
      "inputs": [
        {
          "name": "id2",
          "type": "uint256"
        }
      ],
      "name": "vieworder",
      "outputs": [
        {
          "name": "",
          "type": "uint256"
        },
        {
          "name": "",
          "type": "address"
        },
        {
          "name": "",
          "type": "uint256"
        },
        {
          "name": "",
          "type": "string"
        },
        {
          "name": "",
          "type": "uint256"
        },
        {
          "name": "",
          "type": "uint256"
        },
        {
          "name": "",
          "type": "uint256"
        }
      ],
      "payable": false,
      "stateMutability": "view",
      "type": "function"
    },
    {
      "constant": true,
      "inputs": [
        {
          "name": "id",
          "type": "uint256"
        }
      ],
      "name": "outOfStock",
      "outputs": [
        {
          "name": "",
          "type": "uint256"
        },
        {
          "name": "",
          "type": "uint256"
        }
      ],
      "payable": false,
      "stateMutability": "view",
      "type": "function"
    },
    {
      "constant": false,
      "inputs": [
        {
          "name": "oid",
          "type": "uint256"
        },
        {
          "name": "id",
          "type": "uint256"
        }
      ],
      "name": "ordercancel",
      "outputs": [],
      "payable": false,
      "stateMutability": "nonpayable",
      "type": "function"
    },
    {
      "constant": true,
      "inputs": [],
      "name": "getcancell_list",
      "outputs": [
        {
          "name": "",
          "type": "uint256[]"
        }
      ],
      "payable": false,
      "stateMutability": "view",
      "type": "function"
    },
    {
      "constant": true,
      "inputs": [
        {
          "name": "oid",
          "type": "uint256"
        }
      ],
      "name": "cancel_list",
      "outputs": [
        {
          "name": "",
          "type": "uint256"
        },
        {
          "name": "",
          "type": "uint256"
        },
        {
          "name": "",
          "type": "address"
        },
        {
          "name": "",
          "type": "uint256"
        },
        {
          "name": "",
          "type": "uint256"
        }
      ],
      "payable": false,
      "stateMutability": "view",
      "type": "function"
    },
    {
      "constant": false,
      "inputs": [
        {
          "name": "x",
          "type": "address"
        }
      ],
      "name": "returnether",
      "outputs": [],
      "payable": true,
      "stateMutability": "payable",
      "type": "function"
    }
  ],
  "bytecode": "0x60806040526040805190810160405280600981526020017f546f6b656e20312e3000000000000000000000000000000000000000000000008152506002908051906020019062000051929190620001dd565b5067016345785d8a00006008556000600b55336000806101000a81548173ffffffffffffffffffffffffffffffffffffffff021916908373ffffffffffffffffffffffffffffffffffffffff16021790555061c350600681905550600654600960003373ffffffffffffffffffffffffffffffffffffffff1673ffffffffffffffffffffffffffffffffffffffff168152602001908152602001600020819055506040805190810160405280600981526020017f4e455720544f4b454e0000000000000000000000000000000000000000000000815250600390805190602001906200013f929190620001dd565b506040805190810160405280600381526020017f2443540000000000000000000000000000000000000000000000000000000000815250600490805190602001906200018d929190620001dd565b50600060058190555033600160006101000a81548173ffffffffffffffffffffffffffffffffffffffff021916908373ffffffffffffffffffffffffffffffffffffffff1602179055506200028c565b828054600181600116156101000203166002900490600052602060002090601f016020900481019282601f106200022057805160ff191683800117855562000251565b8280016001018555821562000251579182015b828111156200025057825182559160200191906001019062000233565b5b50905062000260919062000264565b5090565b6200028991905b80821115620002855760008160009055506001016200026b565b5090565b90565b612c63806200029c6000396000f3006080604052600436106101c2576000357c0100000000000000000000000000000000000000000000000000000000900463ffffffff16806303c89492146101c757806306fdde031461032f5780630e29df22146103bf5780630e882129146103dd57806318160ddd146104115780631a79b79a1461043c578063218915e5146104a857806327e235e3146104df5780632804b2c0146105365780632ad0eaf41461058d5780632c4e722e146106bb578063313ce567146106e657806339a5b45414610711578063481009d91461075257806349bc60c01461084e5780635786fd40146108965780635a3b7e42146108c15780635ae637cc146109515780636a45065214610a1157806370a0823114610a52578063721a13e914610aa9578063740c133a14610bd75780637879642614610c2e5780637f230f0614610c7d57806386de905314610cbe578063870307c514610d4757806387744c3714610d885780638d0a5fbb14610e0b5780638da5cb5b14610e3657806392b1a83d14610e8d57806395d89b4114610f16578063975b345814610fa65780639f77a60514610fdc578063a9059cbb1461101d578063aece059014611082578063e0f6ef87146110c3575b600080fd5b3480156101d357600080fd5b506101f2600480360381019080803590602001909291905050506110ee565b604051808981526020018881526020018773ffffffffffffffffffffffffffffffffffffffff1673ffffffffffffffffffffffffffffffffffffffff1681526020018060200180602001868152602001858152602001848152602001838103835288818151815260200191508051906020019080838360005b8381101561028657808201518184015260208101905061026b565b50505050905090810190601f1680156102b35780820380516001836020036101000a031916815260200191505b50838103825287818151815260200191508051906020019080838360005b838110156102ec5780820151818401526020810190506102d1565b50505050905090810190601f1680156103195780820380516001836020036101000a031916815260200191505b509a505050505050505050505060405180910390f35b34801561033b57600080fd5b50610344611286565b6040518080602001828103825283818151815260200191508051906020019080838360005b83811015610384578082015181840152602081019050610369565b50505050905090810190601f1680156103b15780820380516001836020036101000a031916815260200191505b509250505060405180910390f35b6103c7611324565b6040518082815260200191505060405180910390f35b61040f6004803603810190808035906020019092919080359060200190929190803590602001909291905050506115b2565b005b34801561041d57600080fd5b506104266118db565b6040518082815260200191505060405180910390f35b34801561044857600080fd5b506104516118e5565b6040518080602001828103825283818151815260200191508051906020019060200280838360005b83811015610494578082015181840152602081019050610479565b505050509050019250505060405180910390f35b3480156104b457600080fd5b506104dd600480360381019080803590602001909291908035906020019092919050505061193d565b005b3480156104eb57600080fd5b50610520600480360381019080803573ffffffffffffffffffffffffffffffffffffffff169060200190929190505050611c23565b6040518082815260200191505060405180910390f35b34801561054257600080fd5b5061054b611c3b565b604051808273ffffffffffffffffffffffffffffffffffffffff1673ffffffffffffffffffffffffffffffffffffffff16815260200191505060405180910390f35b34801561059957600080fd5b506105b860048036038101908080359060200190929190505050611c61565b604051808781526020018060200180602001868152602001858152602001848152602001838103835288818151815260200191508051906020019080838360005b838110156106145780820151818401526020810190506105f9565b50505050905090810190601f1680156106415780820380516001836020036101000a031916815260200191505b50838103825287818151815260200191508051906020019080838360005b8381101561067a57808201518184015260208101905061065f565b50505050905090810190601f1680156106a75780820380516001836020036101000a031916815260200191505b509850505050505050505060405180910390f35b3480156106c757600080fd5b506106d0611dcd565b6040518082815260200191505060405180910390f35b3480156106f257600080fd5b506106fb611dd3565b6040518082815260200191505060405180910390f35b34801561071d57600080fd5b5061073c60048036038101908080359060200190929190505050611dd9565b6040518082815260200191505060405180910390f35b34801561075e57600080fd5b5061077d60048036038101908080359060200190929190505050611dfc565b604051808881526020018773ffffffffffffffffffffffffffffffffffffffff1673ffffffffffffffffffffffffffffffffffffffff16815260200186815260200180602001858152602001848152602001838152602001828103825286818151815260200191508051906020019080838360005b8381101561080d5780820151818401526020810190506107f2565b50505050905090810190601f16801561083a5780820380516001836020036101000a031916815260200191505b509850505050505050505060405180910390f35b34801561085a57600080fd5b5061087960048036038101908080359060200190929190505050611f7d565b604051808381526020018281526020019250505060405180910390f35b3480156108a257600080fd5b506108ab611fdc565b6040518082815260200191505060405180910390f35b3480156108cd57600080fd5b506108d6611fe9565b6040518080602001828103825283818151815260200191508051906020019080838360005b838110156109165780820151818401526020810190506108fb565b50505050905090810190601f1680156109435780820380516001836020036101000a031916815260200191505b509250505060405180910390f35b610a0f60048036038101908080359060200190929190803590602001908201803590602001908080601f0160208091040260200160405190810160405280939291908181526020018383808284378201915050505050509192919290803590602001908201803590602001908080601f01602080910402602001604051908101604052809392919081815260200183838082843782019150505050505091929192908035906020019092919080359060200190929190505050612087565b005b348015610a1d57600080fd5b50610a5060048036038101908080359060200190929190803590602001909291908035906020019092919050505061220e565b005b348015610a5e57600080fd5b50610a93600480360381019080803573ffffffffffffffffffffffffffffffffffffffff1690602001909291905050506122fe565b6040518082815260200191505060405180910390f35b348015610ab557600080fd5b50610ad460048036038101908080359060200190929190505050612347565b604051808781526020018060200180602001868152602001858152602001848152602001838103835288818151815260200191508051906020019080838360005b83811015610b30578082015181840152602081019050610b15565b50505050905090810190601f168015610b5d5780820380516001836020036101000a031916815260200191505b50838103825287818151815260200191508051906020019080838360005b83811015610b96578082015181840152602081019050610b7b565b50505050905090810190601f168015610bc35780820380516001836020036101000a031916815260200191505b509850505050505050505060405180910390f35b348015610be357600080fd5b50610bec612526565b604051808273ffffffffffffffffffffffffffffffffffffffff1673ffffffffffffffffffffffffffffffffffffffff16815260200191505060405180910390f35b348015610c3a57600080fd5b50610c596004803603810190808035906020019092919050505061260b565b60405180848152602001838152602001828152602001935050505060405180910390f35b348015610c8957600080fd5b50610ca860048036038101908080359060200190929190505050612635565b6040518082815260200191505060405180910390f35b348015610cca57600080fd5b50610ce960048036038101908080359060200190929190505050612658565b604051808681526020018581526020018473ffffffffffffffffffffffffffffffffffffffff1673ffffffffffffffffffffffffffffffffffffffff1681526020018381526020018281526020019550505050505060405180910390f35b348015610d5357600080fd5b50610d7260048036038101908080359060200190929190505050612706565b6040518082815260200191505060405180910390f35b348015610d9457600080fd5b50610dc9600480360381019080803573ffffffffffffffffffffffffffffffffffffffff169060200190929190505050612726565b604051808273ffffffffffffffffffffffffffffffffffffffff1673ffffffffffffffffffffffffffffffffffffffff16815260200191505060405180910390f35b348015610e1757600080fd5b50610e20612759565b6040518082815260200191505060405180910390f35b348015610e4257600080fd5b50610e4b612766565b604051808273ffffffffffffffffffffffffffffffffffffffff1673ffffffffffffffffffffffffffffffffffffffff16815260200191505060405180910390f35b348015610e9957600080fd5b50610eb86004803603810190808035906020019092919050505061278b565b604051808681526020018581526020018473ffffffffffffffffffffffffffffffffffffffff1673ffffffffffffffffffffffffffffffffffffffff1681526020018381526020018281526020019550505050505060405180910390f35b348015610f2257600080fd5b50610f2b6127e1565b6040518080602001828103825283818151815260200191508051906020019080838360005b83811015610f6b578082015181840152602081019050610f50565b50505050905090810190601f168015610f985780820380516001836020036101000a031916815260200191505b509250505060405180910390f35b610fda600480360381019080803573ffffffffffffffffffffffffffffffffffffffff16906020019092919050505061287f565b005b348015610fe857600080fd5b50611007600480360381019080803590602001909291905050506128c9565b6040518082815260200191505060405180910390f35b34801561102957600080fd5b50611068600480360381019080803573ffffffffffffffffffffffffffffffffffffffff169060200190929190803590602001909291905050506128ec565b604051808215151515815260200191505060405180910390f35b34801561108e57600080fd5b506110ad60048036038101908080359060200190929190505050612aab565b6040518082815260200191505060405180910390f35b3480156110cf57600080fd5b506110d8612ace565b6040518082815260200191505060405180910390f35b60116020528060005260406000206000915090508060000154908060010154908060020160009054906101000a900473ffffffffffffffffffffffffffffffffffffffff1690806003018054600181600116156101000203166002900480601f0160208091040260200160405190810160405280929190818152602001828054600181600116156101000203166002900480156111cc5780601f106111a1576101008083540402835291602001916111cc565b820191906000526020600020905b8154815290600101906020018083116111af57829003601f168201915b505050505090806004018054600181600116156101000203166002900480601f01602080910402602001604051908101604052809291908181526020018280546001816001161561010002031660029004801561126a5780601f1061123f5761010080835404028352916020019161126a565b820191906000526020600020905b81548152906001019060200180831161124d57829003601f168201915b5050505050908060050154908060060154908060070154905088565b60038054600181600116156101000203166002900480601f01602080910402602001604051908101604052809291908181526020018280546001816001161561010002031660029004801561131c5780601f106112f15761010080835404028352916020019161131c565b820191906000526020600020905b8154815290600101906020018083116112ff57829003601f168201915b505050505081565b6000806008543481151561133457fe5b0490508060096000600160009054906101000a900473ffffffffffffffffffffffffffffffffffffffff1673ffffffffffffffffffffffffffffffffffffffff1673ffffffffffffffffffffffffffffffffffffffff168152602001908152602001600020541180156113aa5750806008540234145b15156113b557600080fd5b600160009054906101000a900473ffffffffffffffffffffffffffffffffffffffff1673ffffffffffffffffffffffffffffffffffffffff166108fc349081150290604051600060405180830381858888f1935050505015801561141d573d6000803e3d6000fd5b5080600960003373ffffffffffffffffffffffffffffffffffffffff1673ffffffffffffffffffffffffffffffffffffffff1681526020019081526020016000205401600960003373ffffffffffffffffffffffffffffffffffffffff1673ffffffffffffffffffffffffffffffffffffffff168152602001908152602001600020819055508060096000600160009054906101000a900473ffffffffffffffffffffffffffffffffffffffff1673ffffffffffffffffffffffffffffffffffffffff1673ffffffffffffffffffffffffffffffffffffffff168152602001908152602001600020540360096000600160009054906101000a900473ffffffffffffffffffffffffffffffffffffffff1673ffffffffffffffffffffffffffffffffffffffff1673ffffffffffffffffffffffffffffffffffffffff16815260200190815260200160002081905550600960003373ffffffffffffffffffffffffffffffffffffffff1673ffffffffffffffffffffffffffffffffffffffff1681526020019081526020016000205491505090565b6010600083815260200190815260200160002060000154821480156115ed575060106000838152602001908152602001600020600301548111155b15156115f857600080fd5b600f60003373ffffffffffffffffffffffffffffffffffffffff1673ffffffffffffffffffffffffffffffffffffffff16815260200190815260200160002060009054906101000a900473ffffffffffffffffffffffffffffffffffffffff1673ffffffffffffffffffffffffffffffffffffffff163373ffffffffffffffffffffffffffffffffffffffff1614151561169157600080fd5b826011600085815260200190815260200160002060000181905550336011600085815260200190815260200160002060020160006101000a81548173ffffffffffffffffffffffffffffffffffffffff021916908373ffffffffffffffffffffffffffffffffffffffff16021790555081601160008581526020019081526020016000206001018190555060106000838152602001908152602001600020600101601160008581526020019081526020016000206003019080546001816001161561010002031660029004611767929190612b0b565b50601060008381526020019081526020016000206002016011600085815260200190815260200160002060040190805460018160011615610100020316600290046117b3929190612b0b565b50806011600085815260200190815260200160002060050181905550601060008381526020019081526020016000206004015481026011600085815260200190815260200160002060060181905550426011600085815260200190815260200160002060070181905550806010600084815260200190815260200160002060030160008282540392505081905550600160009054906101000a900473ffffffffffffffffffffffffffffffffffffffff1673ffffffffffffffffffffffffffffffffffffffff166108fc349081150290604051600060405180830381858888f193505050501580156118a9573d6000803e3d6000fd5b50600d839080600181540180825580915050906001820390600052602060002001600090919290919091505550505050565b6000600654905090565b6060600e80548060200260200160405190810160405280929190818152602001828054801561193357602002820191906000526020600020905b81548152602001906001019080831161191f575b5050505050905090565b60006011600084815260200190815260200160002060020160009054906101000a900473ffffffffffffffffffffffffffffffffffffffff1673ffffffffffffffffffffffffffffffffffffffff163373ffffffffffffffffffffffffffffffffffffffff16148015611a3a5750600f60003373ffffffffffffffffffffffffffffffffffffffff1673ffffffffffffffffffffffffffffffffffffffff16815260200190815260200160002060009054906101000a900473ffffffffffffffffffffffffffffffffffffffff1673ffffffffffffffffffffffffffffffffffffffff163373ffffffffffffffffffffffffffffffffffffffff16145b1515611a4557600080fd5b601160008481526020019081526020016000206007015442039050610e108111151515611a7157600080fd5b60116000848152602001908152602001600020600501546010600084815260200190815260200160002060030160008282540192505081905550601160008481526020019081526020016000206005015460116000858152602001908152602001600020600501600082825403925050819055508260136000858152602001908152602001600020600001819055508160136000858152602001908152602001600020600101819055506011600084815260200190815260200160002060020160009054906101000a900473ffffffffffffffffffffffffffffffffffffffff166013600085815260200190815260200160002060020160006101000a81548173ffffffffffffffffffffffffffffffffffffffff021916908373ffffffffffffffffffffffffffffffffffffffff16021790555060116000848152602001908152602001600020600601546013600085815260200190815260200160002060030181905550426013600085815260200190815260200160002060040181905550600e839080600181540180825580915050906001820390600052602060002001600090919290919091505550505050565b60096020528060005260406000206000915090505481565b600a60009054906101000a900473ffffffffffffffffffffffffffffffffffffffff1681565b6010602052806000526040600020600091509050806000015490806001018054600181600116156101000203166002900480601f016020809104026020016040519081016040528092919081815260200182805460018160011615610100020316600290048015611d135780601f10611ce857610100808354040283529160200191611d13565b820191906000526020600020905b815481529060010190602001808311611cf657829003601f168201915b505050505090806002018054600181600116156101000203166002900480601f016020809104026020016040519081016040528092919081815260200182805460018160011615610100020316600290048015611db15780601f10611d8657610100808354040283529160200191611db1565b820191906000526020600020905b815481529060010190602001808311611d9457829003601f168201915b5050505050908060030154908060040154908060050154905086565b60085481565b60055481565b600e81815481101515611de857fe5b906000526020600020016000915090505481565b6000806000606060008060006011600089815260200190815260200160002060000154601160008a815260200190815260200160002060020160009054906101000a900473ffffffffffffffffffffffffffffffffffffffff16601160008b815260200190815260200160002060010154601160008c8152602001908152602001600020600301601160008d815260200190815260200160002060050154601160008e815260200190815260200160002060060154601160008f815260200190815260200160002060070154838054600181600116156101000203166002900480601f016020809104026020016040519081016040528092919081815260200182805460018160011615610100020316600290048015611f5d5780601f10611f3257610100808354040283529160200191611f5d565b820191906000526020600020905b815481529060010190602001808311611f4057829003601f168201915b505050505093509650965096509650965096509650919395979092949650565b60008060006010600085815260200190815260200160002060030154141515611fa557600080fd5b6010600084815260200190815260200160002060000154601060008581526020019081526020016000206003015491509150915091565b6000600c80549050905090565b60028054600181600116156101000203166002900480601f01602080910402602001604051908101604052809291908181526020018280546001816001161561010002031660029004801561207f5780601f106120545761010080835404028352916020019161207f565b820191906000526020600020905b81548152906001019060200180831161206257829003601f168201915b505050505081565b3373ffffffffffffffffffffffffffffffffffffffff166000809054906101000a900473ffffffffffffffffffffffffffffffffffffffff1673ffffffffffffffffffffffffffffffffffffffff161415156120e257600080fd5b8460106000878152602001908152602001600020600001541415151561210757600080fd5b8460106000878152602001908152602001600020600001819055508360106000878152602001908152602001600020600101908051906020019061214c929190612b92565b5082601060008781526020019081526020016000206002019080519060200190612177929190612b92565b50816010600087815260200190815260200160002060030181905550806010600087815260200190815260200160002060040181905550426010600087815260200190815260200160002060050181905550600b60008154809291906001019190505550600c8590806001815401808255809150509060018203906000526020600020016000909192909190915055505050505050565b3373ffffffffffffffffffffffffffffffffffffffff166000809054906101000a900473ffffffffffffffffffffffffffffffffffffffff1673ffffffffffffffffffffffffffffffffffffffff1614151561226957600080fd5b826012600085815260200190815260200160002060000181905550816012600085815260200190815260200160002060010181905550806012600085815260200190815260200160002060020181905550816010600085815260200190815260200160002060030160008282540192505081905550806010600085815260200190815260200160002060040181905550505050565b6000600960008373ffffffffffffffffffffffffffffffffffffffff1673ffffffffffffffffffffffffffffffffffffffff168152602001908152602001600020549050919050565b60006060806000806000601060008881526020019081526020016000206000015460106000898152602001908152602001600020600101601060008a8152602001908152602001600020600201601060008b815260200190815260200160002060030154601060008c815260200190815260200160002060040154601060008d815260200190815260200160002060050154848054600181600116156101000203166002900480601f01602080910402602001604051908101604052809291908181526020018280546001816001161561010002031660029004801561246e5780601f106124435761010080835404028352916020019161246e565b820191906000526020600020905b81548152906001019060200180831161245157829003601f168201915b50505050509450838054600181600116156101000203166002900480601f01602080910402602001604051908101604052809291908181526020018280546001816001161561010002031660029004801561250a5780601f106124df5761010080835404028352916020019161250a565b820191906000526020600020905b8154815290600101906020018083116124ed57829003601f168201915b5050505050935095509550955095509550955091939550919395565b600033600f60003373ffffffffffffffffffffffffffffffffffffffff1673ffffffffffffffffffffffffffffffffffffffff16815260200190815260200160002060006101000a81548173ffffffffffffffffffffffffffffffffffffffff021916908373ffffffffffffffffffffffffffffffffffffffff160217905550600f60003373ffffffffffffffffffffffffffffffffffffffff1673ffffffffffffffffffffffffffffffffffffffff16815260200190815260200160002060009054906101000a900473ffffffffffffffffffffffffffffffffffffffff16905090565b60126020528060005260406000206000915090508060000154908060010154908060020154905083565b600d8181548110151561264457fe5b906000526020600020016000915090505481565b6000806000806000601360008781526020019081526020016000206000015460136000888152602001908152602001600020600101546013600089815260200190815260200160002060020160009054906101000a900473ffffffffffffffffffffffffffffffffffffffff16601360008a815260200190815260200160002060030154601360008b8152602001908152602001600020600401549450945094509450945091939590929450565b600060106000838152602001908152602001600020600401549050919050565b600f6020528060005260406000206000915054906101000a900473ffffffffffffffffffffffffffffffffffffffff1681565b6000600d80549050905090565b6000809054906101000a900473ffffffffffffffffffffffffffffffffffffffff1681565b60136020528060005260406000206000915090508060000154908060010154908060020160009054906101000a900473ffffffffffffffffffffffffffffffffffffffff16908060030154908060040154905085565b60048054600181600116156101000203166002900480601f0160208091040260200160405190810160405280929190818152602001828054600181600116156101000203166002900480156128775780601f1061284c57610100808354040283529160200191612877565b820191906000526020600020905b81548152906001019060200180831161285a57829003601f168201915b505050505081565b8073ffffffffffffffffffffffffffffffffffffffff166108fc349081150290604051600060405180830381858888f193505050501580156128c5573d6000803e3d6000fd5b5050565b6000600c828154811015156128da57fe5b90600052602060002001549050919050565b60008073ffffffffffffffffffffffffffffffffffffffff168373ffffffffffffffffffffffffffffffffffffffff161415151561292957600080fd5b600960003373ffffffffffffffffffffffffffffffffffffffff1673ffffffffffffffffffffffffffffffffffffffff16815260200190815260200160002054821115151561297757600080fd5b6129c982600960003373ffffffffffffffffffffffffffffffffffffffff1673ffffffffffffffffffffffffffffffffffffffff16815260200190815260200160002054612ad490919063ffffffff16565b600960003373ffffffffffffffffffffffffffffffffffffffff1673ffffffffffffffffffffffffffffffffffffffff16815260200190815260200160002081905550612a5e82600960008673ffffffffffffffffffffffffffffffffffffffff1673ffffffffffffffffffffffffffffffffffffffff16815260200190815260200160002054612aed90919063ffffffff16565b600960008573ffffffffffffffffffffffffffffffffffffffff1673ffffffffffffffffffffffffffffffffffffffff168152602001908152602001600020819055506001905092915050565b600c81815481101515612aba57fe5b906000526020600020016000915090505481565b600b5481565b6000828211151515612ae257fe5b818303905092915050565b6000808284019050838110151515612b0157fe5b8091505092915050565b828054600181600116156101000203166002900490600052602060002090601f016020900481019282601f10612b445780548555612b81565b82800160010185558215612b8157600052602060002091601f016020900482015b82811115612b80578254825591600101919060010190612b65565b5b509050612b8e9190612c12565b5090565b828054600181600116156101000203166002900490600052602060002090601f016020900481019282601f10612bd357805160ff1916838001178555612c01565b82800160010185558215612c01579182015b82811115612c00578251825591602001919060010190612be5565b5b509050612c0e9190612c12565b5090565b612c3491905b80821115612c30576000816000905550600101612c18565b5090565b905600a165627a7a7230582077963cc447511b93109287f85acdb2b1927b3d1f6fd38abb7db12ca531a80aef0029",
  "source": "pragma solidity ^0.4.0;\r\n\r\nimport \"./owned.sol\";\r\nimport \"./BasicToken.sol\";\r\n\r\n\r\n \r\ncontract Inventory is owned,BasicToken{\r\n     \r\n    \r\n     \r\n   address public customer;\r\n   uint256 public productCount=0;\r\n   uint256[] public p_id;\r\n   uint256[] public o_id;\r\n   uint256[] public c_id;\r\n   \r\n    struct product{\r\n        uint pid;\r\n        string pname;\r\n        string pbrand;\r\n        uint pquantity;\r\n        uint pprice;\r\n        uint time;\r\n       }\r\n\r\n     \r\n    \r\n       \r\n        struct productorder{\r\n             uint id2;\r\n             uint id1;\r\n             address cid;\r\n             string name;\r\n             string brand;\r\n             uint quantity;\r\n             uint price;\r\n             uint time;\r\n            }\r\n        \r\n       \r\n        \r\n        struct in_order{\r\n            uint ipid;\r\n            uint iquantity;\r\n            uint iprice;\r\n           }\r\n     struct cancellorder{\r\n         uint oid;\r\n         uint pid;\r\n         address c_address;\r\n         uint price;\r\n         uint time;\r\n     }\r\n                          \r\n    mapping(address=>address)public CUST;\r\n    mapping(uint=>product)public PROD;\r\n    mapping(uint=>productorder)public ORDER;\r\n    mapping(uint=>in_order)public UPDATE;\r\n    mapping(uint=>cancellorder)public CANCELL;\r\n    \r\n    function view1(uint id)public constant returns(uint){\r\n         return (PROD[id].pprice);\r\n     }\r\n    \r\n    \r\n    function cust()public returns(address) {\r\n        CUST[msg.sender] = msg.sender;\r\n        return CUST[msg.sender];\r\n    }\r\n    \r\n    function p_details(uint id,string name,string brand,uint quantity,uint price)public  payable onlyOwner   {\r\n        require(PROD[id].pid!=id);\r\n        PROD[id].pid = id;\r\n        PROD[id].pname = name;\r\n        PROD[id].pbrand = brand;\r\n        PROD[id].pquantity = quantity;\r\n        PROD[id].pprice = price;\r\n        PROD[id].time = now;\r\n        productCount++;\r\n        p_id.push(id);\r\n        \r\n    }  \r\n   \r\n   function getProductsCount() public view returns(uint256){\r\n       return p_id.length;\r\n   }\r\n\r\n   function getProductId(uint _id) public view returns(uint256)\r\n   {\r\n       return p_id[_id];\r\n   }\r\n\r\n    function order(uint id2,uint id,uint pquantity)public payable {\r\n        \r\n           require(id ==PROD[id].pid && pquantity <= PROD[id].pquantity);\r\n           require(msg.sender==CUST[msg.sender] );\r\n           ORDER[id2].id2 = id2;\r\n           ORDER[id2].cid = msg.sender;\r\n           ORDER[id2].id1=id;\r\n           ORDER[id2].name =PROD[id].pname ;\r\n           ORDER[id2].brand =  PROD[id].pbrand;\r\n           ORDER[id2].quantity=pquantity;\r\n           ORDER[id2].price = pquantity *  PROD[id].pprice; \r\n           ORDER[id2].time = now;\r\n           PROD[id].pquantity-=pquantity;\r\n           owner.transfer(msg.value);\r\n           o_id.push(id2);\r\n           \r\n    }\r\n    \r\n    function getOrderCount()public view returns(uint256){\r\n        return o_id.length;\r\n    }\r\n     \r\n   \r\n    function update_product(uint id,uint _quantity,uint price)public onlyOwner  {\r\n       \r\n       UPDATE[id].ipid = id;\r\n       UPDATE[id].iquantity = _quantity;\r\n       UPDATE[id].iprice = price;\r\n       PROD[id].pquantity+=_quantity;\r\n        PROD[id].pprice= price;\r\n       \r\n\r\n       }\r\n      \r\n         \r\n       function viewproduct(uint id)public constant returns(uint,string,string,uint,uint,uint){\r\n           \r\n           return(PROD[id].pid,PROD[id].pname,PROD[id].pbrand,  PROD[id].pquantity,PROD[id].pprice,PROD[id].time);\r\n       } \r\n       \r\n       \r\n       function vieworder(uint id2)public constant returns(uint,address,uint,string,uint,uint,uint){\r\n                  \r\n           return (ORDER[id2].id2,ORDER[id2].cid, ORDER[id2].id1, ORDER[id2].name , ORDER[id2].quantity,ORDER[id2].price, ORDER[id2].time);\r\n           \r\n       }\r\n       \r\n       function outOfStock(uint id)public constant returns(uint,uint){\r\n            require(PROD[id].pquantity==0);\r\n            return (PROD[id].pid,PROD[id].pquantity);\r\n       }\r\n       \r\n       function ordercancel(uint oid,uint id)public  {\r\n         require(msg.sender== ORDER[oid].cid && msg.sender==CUST[msg.sender] );\r\n         uint t =(now -  ORDER[oid].time );\r\n           require(t<= 3600 seconds);\r\n       \r\n         PROD[id].pquantity += ORDER[oid].quantity ;\r\n         ORDER[oid].quantity -= ORDER[oid].quantity; \r\n           CANCELL[oid].oid = oid;\r\n           CANCELL[oid].pid = id ;\r\n           CANCELL[oid]. c_address =  ORDER[oid].cid ;\r\n           CANCELL[oid].price =  ORDER[oid].price;\r\n           CANCELL[oid].time = now;\r\n            c_id.push(oid);\r\n            \r\n         }\r\n         \r\n         function getcancell_list()public view returns(uint256[]){\r\n             return c_id;\r\n         }\r\n        \r\n         \r\n         function cancel_list(uint oid)public constant returns(uint,uint,address,uint,uint){\r\n             return (CANCELL[oid].oid , CANCELL[oid].pid , CANCELL[oid]. c_address, CANCELL[oid].price , CANCELL[oid].time);\r\n         }\r\n    \r\n        function returnether(address x)public payable{\r\n             x .transfer(msg.value);\r\n        }\r\n        \r\n    }\r\n   \r\n     \r\n ",
  "sourcePath": "D:\\Inventory\\contracts\\Inventory.sol",
  "compiler": {
    "name": "solc",
    "version": "0.4.23+commit.124ca40d.Emscripten.clang"
  },
  "schemaVersion": "2.0.0",
  "updatedAt": "2018-05-10T07:11:47.902Z"
}