{
  "contractName": "Inventory",
  "abi": [
    {
      "constant": true,
      "inputs": [
        {
          "name": "",
          "type": "uint256"
        }
      ],
      "name": "ORDER",
      "outputs": [
        {
          "name": "id2",
          "type": "uint256"
        },
        {
          "name": "id1",
          "type": "uint256"
        },
        {
          "name": "cid",
          "type": "address"
        },
        {
          "name": "name",
          "type": "string"
        },
        {
          "name": "brand",
          "type": "string"
        },
        {
          "name": "quantity",
          "type": "uint256"
        },
        {
          "name": "price",
          "type": "uint256"
        },
        {
          "name": "time",
          "type": "uint256"
        },
        {
          "name": "status",
          "type": "uint256"
        }
      ],
      "payable": false,
      "stateMutability": "view",
      "type": "function"
    },
    {
      "constant": true,
      "inputs": [
        {
          "name": "",
          "type": "uint256"
        }
      ],
      "name": "PROD",
      "outputs": [
        {
          "name": "pid",
          "type": "uint256"
        },
        {
          "name": "pname",
          "type": "string"
        },
        {
          "name": "pbrand",
          "type": "string"
        },
        {
          "name": "pquantity",
          "type": "uint256"
        },
        {
          "name": "pprice",
          "type": "uint256"
        },
        {
          "name": "time",
          "type": "uint256"
        }
      ],
      "payable": false,
      "stateMutability": "view",
      "type": "function"
    },
    {
      "constant": true,
      "inputs": [
        {
          "name": "",
          "type": "uint256"
        }
      ],
      "name": "c_id",
      "outputs": [
        {
          "name": "",
          "type": "uint256"
        }
      ],
      "payable": false,
      "stateMutability": "view",
      "type": "function"
    },
    {
      "constant": true,
      "inputs": [],
      "name": "ordercount",
      "outputs": [
        {
          "name": "",
          "type": "uint256"
        }
      ],
      "payable": false,
      "stateMutability": "view",
      "type": "function"
    },
    {
      "constant": true,
      "inputs": [
        {
          "name": "",
          "type": "uint256"
        }
      ],
      "name": "UPDATE",
      "outputs": [
        {
          "name": "ipid",
          "type": "uint256"
        },
        {
          "name": "iquantity",
          "type": "uint256"
        },
        {
          "name": "iprice",
          "type": "uint256"
        }
      ],
      "payable": false,
      "stateMutability": "view",
      "type": "function"
    },
    {
      "constant": true,
      "inputs": [
        {
          "name": "",
          "type": "uint256"
        }
      ],
      "name": "o_id",
      "outputs": [
        {
          "name": "",
          "type": "uint256"
        }
      ],
      "payable": false,
      "stateMutability": "view",
      "type": "function"
    },
    {
      "constant": true,
      "inputs": [],
      "name": "owner",
      "outputs": [
        {
          "name": "",
          "type": "address"
        }
      ],
      "payable": false,
      "stateMutability": "view",
      "type": "function"
    },
    {
      "constant": true,
      "inputs": [
        {
          "name": "",
          "type": "uint256"
        }
      ],
      "name": "CANCELL",
      "outputs": [
        {
          "name": "oid",
          "type": "uint256"
        },
        {
          "name": "pid",
          "type": "uint256"
        },
        {
          "name": "c_address",
          "type": "address"
        },
        {
          "name": "price",
          "type": "uint256"
        },
        {
          "name": "time",
          "type": "uint256"
        }
      ],
      "payable": false,
      "stateMutability": "view",
      "type": "function"
    },
    {
      "constant": true,
      "inputs": [
        {
          "name": "",
          "type": "uint256"
        }
      ],
      "name": "p_id",
      "outputs": [
        {
          "name": "",
          "type": "uint256"
        }
      ],
      "payable": false,
      "stateMutability": "view",
      "type": "function"
    },
    {
      "constant": true,
      "inputs": [],
      "name": "productCount",
      "outputs": [
        {
          "name": "",
          "type": "uint256"
        }
      ],
      "payable": false,
      "stateMutability": "view",
      "type": "function"
    },
    {
      "inputs": [],
      "payable": false,
      "stateMutability": "nonpayable",
      "type": "constructor"
    },
    {
      "constant": true,
      "inputs": [
        {
          "name": "id",
          "type": "uint256"
        }
      ],
      "name": "view1",
      "outputs": [
        {
          "name": "",
          "type": "uint256"
        }
      ],
      "payable": false,
      "stateMutability": "view",
      "type": "function"
    },
    {
      "constant": false,
      "inputs": [
        {
          "name": "id",
          "type": "uint256"
        },
        {
          "name": "name",
          "type": "string"
        },
        {
          "name": "brand",
          "type": "string"
        },
        {
          "name": "quantity",
          "type": "uint256"
        },
        {
          "name": "price",
          "type": "uint256"
        }
      ],
      "name": "p_details",
      "outputs": [],
      "payable": true,
      "stateMutability": "payable",
      "type": "function"
    },
    {
      "constant": true,
      "inputs": [],
      "name": "getProductsCount",
      "outputs": [
        {
          "name": "",
          "type": "uint256"
        }
      ],
      "payable": false,
      "stateMutability": "view",
      "type": "function"
    },
    {
      "constant": true,
      "inputs": [
        {
          "name": "_id",
          "type": "uint256"
        }
      ],
      "name": "getProductId",
      "outputs": [
        {
          "name": "",
          "type": "uint256"
        }
      ],
      "payable": false,
      "stateMutability": "view",
      "type": "function"
    },
    {
      "constant": false,
      "inputs": [
        {
          "name": "id2",
          "type": "uint256"
        },
        {
          "name": "id",
          "type": "uint256"
        },
        {
          "name": "pquantity",
          "type": "uint256"
        }
      ],
      "name": "order",
      "outputs": [],
      "payable": true,
      "stateMutability": "payable",
      "type": "function"
    },
    {
      "constant": true,
      "inputs": [],
      "name": "getOrderCount",
      "outputs": [
        {
          "name": "",
          "type": "uint256"
        }
      ],
      "payable": false,
      "stateMutability": "view",
      "type": "function"
    },
    {
      "constant": false,
      "inputs": [
        {
          "name": "id",
          "type": "uint256"
        },
        {
          "name": "_quantity",
          "type": "uint256"
        },
        {
          "name": "price",
          "type": "uint256"
        }
      ],
      "name": "update_product",
      "outputs": [],
      "payable": false,
      "stateMutability": "nonpayable",
      "type": "function"
    },
    {
      "constant": true,
      "inputs": [
        {
          "name": "id",
          "type": "uint256"
        }
      ],
      "name": "viewproduct",
      "outputs": [
        {
          "name": "",
          "type": "uint256"
        },
        {
          "name": "",
          "type": "string"
        },
        {
          "name": "",
          "type": "string"
        },
        {
          "name": "",
          "type": "uint256"
        },
        {
          "name": "",
          "type": "uint256"
        },
        {
          "name": "",
          "type": "uint256"
        }
      ],
      "payable": false,
      "stateMutability": "view",
      "type": "function"
    },
    {
      "constant": true,
      "inputs": [
        {
          "name": "id2",
          "type": "uint256"
        }
      ],
      "name": "vieworder",
      "outputs": [
        {
          "name": "",
          "type": "uint256"
        },
        {
          "name": "",
          "type": "address"
        },
        {
          "name": "",
          "type": "uint256"
        },
        {
          "name": "",
          "type": "uint256"
        },
        {
          "name": "",
          "type": "uint256"
        },
        {
          "name": "",
          "type": "uint256"
        },
        {
          "name": "",
          "type": "uint256"
        }
      ],
      "payable": false,
      "stateMutability": "view",
      "type": "function"
    },
    {
      "constant": true,
      "inputs": [
        {
          "name": "id",
          "type": "uint256"
        }
      ],
      "name": "outOfStock",
      "outputs": [
        {
          "name": "",
          "type": "uint256"
        },
        {
          "name": "",
          "type": "uint256"
        },
        {
          "name": "",
          "type": "uint256"
        }
      ],
      "payable": false,
      "stateMutability": "view",
      "type": "function"
    },
    {
      "constant": false,
      "inputs": [
        {
          "name": "oid",
          "type": "uint256"
        },
        {
          "name": "id",
          "type": "uint256"
        }
      ],
      "name": "ordercancel",
      "outputs": [],
      "payable": false,
      "stateMutability": "nonpayable",
      "type": "function"
    },
    {
      "constant": true,
      "inputs": [],
      "name": "getcancell_list",
      "outputs": [
        {
          "name": "",
          "type": "uint256[]"
        }
      ],
      "payable": false,
      "stateMutability": "view",
      "type": "function"
    },
    {
      "constant": true,
      "inputs": [
        {
          "name": "oid",
          "type": "uint256"
        }
      ],
      "name": "cancel_list",
      "outputs": [
        {
          "name": "",
          "type": "uint256"
        },
        {
          "name": "",
          "type": "uint256"
        },
        {
          "name": "",
          "type": "address"
        },
        {
          "name": "",
          "type": "uint256"
        },
        {
          "name": "",
          "type": "uint256"
        }
      ],
      "payable": false,
      "stateMutability": "view",
      "type": "function"
    },
    {
      "constant": false,
      "inputs": [
        {
          "name": "x",
          "type": "address"
        },
        {
          "name": "_cid",
          "type": "uint256"
        }
      ],
      "name": "returnether",
      "outputs": [],
      "payable": true,
      "stateMutability": "payable",
      "type": "function"
    },
    {
      "constant": false,
      "inputs": [
        {
          "name": "newowner",
          "type": "address"
        }
      ],
      "name": "transferOwnership",
      "outputs": [],
      "payable": true,
      "stateMutability": "payable",
      "type": "function"
    },
    {
      "constant": true,
      "inputs": [],
      "name": "getbalance",
      "outputs": [
        {
          "name": "",
          "type": "uint256"
        }
      ],
      "payable": false,
      "stateMutability": "view",
      "type": "function"
    },
    {
      "constant": false,
      "inputs": [],
      "name": "withdraw",
      "outputs": [
        {
          "name": "",
          "type": "bool"
        }
      ],
      "payable": true,
      "stateMutability": "payable",
      "type": "function"
    }
  ],
  "bytecode": "0x6060604052600080556000600155341561001857600080fd5b33600960006101000a81548173ffffffffffffffffffffffffffffffffffffffff021916908373ffffffffffffffffffffffffffffffffffffffff160217905550611f53806100686000396000f30060606040526004361061015f576000357c0100000000000000000000000000000000000000000000000000000000900463ffffffff16806303c89492146101645780630e882129146102c95780631a79b79a146102f3578063218915e51461035d5780632ad0eaf41461038957806339a5b454146104ad5780633ccfd60b146104e4578063481009d91461050657806349bc60c0146105935780634d9b3d5d146105d85780635786fd40146106015780635ae637cc1461062a5780635b4e6081146106da5780636a45065214610703578063721a13e914610738578063787964261461085c5780637f230f06146108a157806386de9053146108d8578063870307c5146109575780638d0a5fbb1461098e5780638da5cb5b146109b757806392b1a83d14610a0c5780639f77a60514610a8b578063aece059014610ac2578063d6c0f72814610af9578063e0f6ef8714610b30578063f2fde38b14610b59575b600080fd5b341561016f57600080fd5b6101856004808035906020019091905050610b87565b604051808a81526020018981526020018873ffffffffffffffffffffffffffffffffffffffff1673ffffffffffffffffffffffffffffffffffffffff1681526020018060200180602001878152602001868152602001858152602001848152602001838103835289818151815260200191508051906020019080838360005b8381101561021f578082015181840152602081019050610204565b50505050905090810190601f16801561024c5780820380516001836020036101000a031916815260200191505b50838103825288818151815260200191508051906020019080838360005b8381101561028557808201518184015260208101905061026a565b50505050905090810190601f1680156102b25780820380516001836020036101000a031916815260200191505b509b50505050505050505050505060405180910390f35b6102f16004808035906020019091908035906020019091908035906020019091905050610d25565b005b34156102fe57600080fd5b610306610f92565b6040518080602001828103825283818151815260200191508051906020019060200280838360005b8381101561034957808201518184015260208101905061032e565b505050509050019250505060405180910390f35b341561036857600080fd5b6103876004808035906020019091908035906020019091905050610ff0565b005b341561039457600080fd5b6103aa6004808035906020019091905050611275565b604051808781526020018060200180602001868152602001858152602001848152602001838103835288818151815260200191508051906020019080838360005b838110156104065780820151818401526020810190506103eb565b50505050905090810190601f1680156104335780820380516001836020036101000a031916815260200191505b50838103825287818151815260200191508051906020019080838360005b8381101561046c578082015181840152602081019050610451565b50505050905090810190601f1680156104995780820380516001836020036101000a031916815260200191505b509850505050505050505060405180910390f35b34156104b857600080fd5b6104ce60048080359060200190919050506113e1565b6040518082815260200191505060405180910390f35b6104ec611405565b604051808215151515815260200191505060405180910390f35b341561051157600080fd5b61052760048080359060200190919050506114e3565b604051808881526020018773ffffffffffffffffffffffffffffffffffffffff1673ffffffffffffffffffffffffffffffffffffffff16815260200186815260200185815260200184815260200183815260200182815260200197505050505050505060405180910390f35b341561059e57600080fd5b6105b460048080359060200190919050506115c8565b60405180848152602001838152602001828152602001935050505060405180910390f35b34156105e357600080fd5b6105eb61161f565b6040518082815260200191505060405180910390f35b341561060c57600080fd5b61061461163e565b6040518082815260200191505060405180910390f35b6106d8600480803590602001909190803590602001908201803590602001908080601f0160208091040260200160405190810160405280939291908181526020018383808284378201915050505050509190803590602001908201803590602001908080601f0160208091040260200160405190810160405280939291908181526020018383808284378201915050505050509190803590602001909190803590602001909190505061164b565b005b34156106e557600080fd5b6106ed6117cf565b6040518082815260200191505060405180910390f35b341561070e57600080fd5b61073660048080359060200190919080359060200190919080359060200190919050506117d5565b005b341561074357600080fd5b61075960048080359060200190919050506118c6565b604051808781526020018060200180602001868152602001858152602001848152602001838103835288818151815260200191508051906020019080838360005b838110156107b557808201518184015260208101905061079a565b50505050905090810190601f1680156107e25780820380516001836020036101000a031916815260200191505b50838103825287818151815260200191508051906020019080838360005b8381101561081b578082015181840152602081019050610800565b50505050905090810190601f1680156108485780820380516001836020036101000a031916815260200191505b509850505050505050505060405180910390f35b341561086757600080fd5b61087d6004808035906020019091905050611ab2565b60405180848152602001838152602001828152602001935050505060405180910390f35b34156108ac57600080fd5b6108c26004808035906020019091905050611adc565b6040518082815260200191505060405180910390f35b34156108e357600080fd5b6108f96004808035906020019091905050611b00565b604051808681526020018581526020018473ffffffffffffffffffffffffffffffffffffffff1673ffffffffffffffffffffffffffffffffffffffff1681526020018381526020018281526020019550505050505060405180910390f35b341561096257600080fd5b6109786004808035906020019091905050611bae565b6040518082815260200191505060405180910390f35b341561099957600080fd5b6109a1611bce565b6040518082815260200191505060405180910390f35b34156109c257600080fd5b6109ca611bdb565b604051808273ffffffffffffffffffffffffffffffffffffffff1673ffffffffffffffffffffffffffffffffffffffff16815260200191505060405180910390f35b3415610a1757600080fd5b610a2d6004808035906020019091905050611c01565b604051808681526020018581526020018473ffffffffffffffffffffffffffffffffffffffff1673ffffffffffffffffffffffffffffffffffffffff1681526020018381526020018281526020019550505050505060405180910390f35b3415610a9657600080fd5b610aac6004808035906020019091905050611c57565b6040518082815260200191505060405180910390f35b3415610acd57600080fd5b610ae36004808035906020019091905050611c7b565b6040518082815260200191505060405180910390f35b610b2e600480803573ffffffffffffffffffffffffffffffffffffffff16906020019091908035906020019091905050611c9f565b005b3415610b3b57600080fd5b610b43611d01565b6040518082815260200191505060405180910390f35b610b85600480803573ffffffffffffffffffffffffffffffffffffffff16906020019091905050611d07565b005b60066020528060005260406000206000915090508060000154908060010154908060020160009054906101000a900473ffffffffffffffffffffffffffffffffffffffff1690806003018054600181600116156101000203166002900480601f016020809104026020016040519081016040528092919081815260200182805460018160011615610100020316600290048015610c655780601f10610c3a57610100808354040283529160200191610c65565b820191906000526020600020905b815481529060010190602001808311610c4857829003601f168201915b505050505090806004018054600181600116156101000203166002900480601f016020809104026020016040519081016040528092919081815260200182805460018160011615610100020316600290048015610d035780601f10610cd857610100808354040283529160200191610d03565b820191906000526020600020905b815481529060010190602001808311610ce657829003601f168201915b5050505050908060050154908060060154908060070154908060080154905089565b600560008381526020019081526020016000206000015482148015610d60575060056000838152602001908152602001600020600301548111155b1515610d6b57600080fd5b826006600085815260200190815260200160002060000181905550336006600085815260200190815260200160002060020160006101000a81548173ffffffffffffffffffffffffffffffffffffffff021916908373ffffffffffffffffffffffffffffffffffffffff16021790555081600660008581526020019081526020016000206001018190555060056000838152602001908152602001600020600101600660008581526020019081526020016000206003019080546001816001161561010002031660029004610e41929190611da7565b5060056000838152602001908152602001600020600201600660008581526020019081526020016000206004019080546001816001161561010002031660029004610e8d929190611da7565b508060066000858152602001908152602001600020600501819055506005600083815260200190815260200160002060040154810260066000858152602001908152602001600020600601819055504260066000858152602001908152602001600020600701819055506001600660008581526020019081526020016000206008018190555080600560008481526020019081526020016000206003016000828254039250508190555034600660008581526020019081526020016000206006018190555060038054806001018281610f669190611e2e565b916000526020600020900160008590919091505550600160008154809291906001019190505550505050565b610f9a611e5a565b6004805480602002602001604051908101604052809291908181526020018280548015610fe657602002820191906000526020600020905b815481526020019060010190808311610fd2575b5050505050905090565b60006006600084815260200190815260200160002060020160009054906101000a900473ffffffffffffffffffffffffffffffffffffffff1673ffffffffffffffffffffffffffffffffffffffff163373ffffffffffffffffffffffffffffffffffffffff1614151561106257600080fd5b600660008481526020019081526020016000206007015442039050610e10811115151561108e57600080fd5b60066000848152602001908152602001600020600501546005600084815260200190815260200160002060030160008282540192505081905550600060066000858152602001908152602001600020600801819055508260086000858152602001908152602001600020600001819055508160086000858152602001908152602001600020600101819055506006600084815260200190815260200160002060020160009054906101000a900473ffffffffffffffffffffffffffffffffffffffff166008600085815260200190815260200160002060020160006101000a81548173ffffffffffffffffffffffffffffffffffffffff021916908373ffffffffffffffffffffffffffffffffffffffff160217905550600660008481526020019081526020016000206006015460086000858152602001908152602001600020600301819055504260086000858152602001908152602001600020600401819055503373ffffffffffffffffffffffffffffffffffffffff166108fc60066000868152602001908152602001600020600601549081150290604051600060405180830381858888f19350505050151561124757600080fd5b6004805480600101828161125b9190611e2e565b916000526020600020900160008590919091505550505050565b6005602052806000526040600020600091509050806000015490806001018054600181600116156101000203166002900480601f0160208091040260200160405190810160405280929190818152602001828054600181600116156101000203166002900480156113275780601f106112fc57610100808354040283529160200191611327565b820191906000526020600020905b81548152906001019060200180831161130a57829003601f168201915b505050505090806002018054600181600116156101000203166002900480601f0160208091040260200160405190810160405280929190818152602001828054600181600116156101000203166002900480156113c55780601f1061139a576101008083540402835291602001916113c5565b820191906000526020600020905b8154815290600101906020018083116113a857829003601f168201915b5050505050908060030154908060040154908060050154905086565b6004818154811015156113f057fe5b90600052602060002090016000915090505481565b60003373ffffffffffffffffffffffffffffffffffffffff16600960009054906101000a900473ffffffffffffffffffffffffffffffffffffffff1673ffffffffffffffffffffffffffffffffffffffff1614151561146357600080fd5b600960009054906101000a900473ffffffffffffffffffffffffffffffffffffffff1673ffffffffffffffffffffffffffffffffffffffff166108fc3073ffffffffffffffffffffffffffffffffffffffff16319081150290604051600060405180830381858888f1935050505015156114dc57600080fd5b6001905090565b60008060008060008060006006600089815260200190815260200160002060000154600660008a815260200190815260200160002060020160009054906101000a900473ffffffffffffffffffffffffffffffffffffffff16600660008b815260200190815260200160002060010154600660008c815260200190815260200160002060050154600660008d815260200190815260200160002060060154600660008e815260200190815260200160002060070154600660008f8152602001908152602001600020600801549650965096509650965096509650919395979092949650565b60008060006005600085815260200190815260200160002060000154600560008681526020019081526020016000206003015460056000878152602001908152602001600020600401549250925092509193909250565b60003073ffffffffffffffffffffffffffffffffffffffff1631905090565b6000600280549050905090565b3373ffffffffffffffffffffffffffffffffffffffff16600960009054906101000a900473ffffffffffffffffffffffffffffffffffffffff1673ffffffffffffffffffffffffffffffffffffffff161415156116a757600080fd5b846005600087815260200190815260200160002060000154141515156116cc57600080fd5b84600560008781526020019081526020016000206000018190555083600560008781526020019081526020016000206001019080519060200190611711929190611e6e565b508260056000878152602001908152602001600020600201908051906020019061173c929190611e6e565b50816005600087815260200190815260200160002060030181905550806005600087815260200190815260200160002060040181905550426005600087815260200190815260200160002060050181905550600280548060010182816117a29190611e2e565b91600052602060002090016000879091909150555060008081548092919060010191905055505050505050565b60015481565b3373ffffffffffffffffffffffffffffffffffffffff16600960009054906101000a900473ffffffffffffffffffffffffffffffffffffffff1673ffffffffffffffffffffffffffffffffffffffff1614151561183157600080fd5b826007600085815260200190815260200160002060000181905550816007600085815260200190815260200160002060010181905550806007600085815260200190815260200160002060020181905550816005600085815260200190815260200160002060030160008282540192505081905550806005600085815260200190815260200160002060040181905550505050565b60006118d0611eee565b6118d8611eee565b6000806000600560008881526020019081526020016000206000015460056000898152602001908152602001600020600101600560008a8152602001908152602001600020600201600560008b815260200190815260200160002060030154600560008c815260200190815260200160002060040154600560008d815260200190815260200160002060050154848054600181600116156101000203166002900480601f0160208091040260200160405190810160405280929190818152602001828054600181600116156101000203166002900480156119fa5780601f106119cf576101008083540402835291602001916119fa565b820191906000526020600020905b8154815290600101906020018083116119dd57829003601f168201915b50505050509450838054600181600116156101000203166002900480601f016020809104026020016040519081016040528092919081815260200182805460018160011615610100020316600290048015611a965780601f10611a6b57610100808354040283529160200191611a96565b820191906000526020600020905b815481529060010190602001808311611a7957829003601f168201915b5050505050935095509550955095509550955091939550919395565b60076020528060005260406000206000915090508060000154908060010154908060020154905083565b600381815481101515611aeb57fe5b90600052602060002090016000915090505481565b6000806000806000600860008781526020019081526020016000206000015460086000888152602001908152602001600020600101546008600089815260200190815260200160002060020160009054906101000a900473ffffffffffffffffffffffffffffffffffffffff16600860008a815260200190815260200160002060030154600860008b8152602001908152602001600020600401549450945094509450945091939590929450565b600060056000838152602001908152602001600020600401549050919050565b6000600380549050905090565b600960009054906101000a900473ffffffffffffffffffffffffffffffffffffffff1681565b60086020528060005260406000206000915090508060000154908060010154908060020160009054906101000a900473ffffffffffffffffffffffffffffffffffffffff16908060030154908060040154905085565b6000600282815481101515611c6857fe5b9060005260206000209001549050919050565b600281815481101515611c8a57fe5b90600052602060002090016000915090505481565b600481815481101515611cae57fe5b9060005260206000209001600090558173ffffffffffffffffffffffffffffffffffffffff166108fc349081150290604051600060405180830381858888f193505050501515611cfd57600080fd5b5050565b60005481565b3373ffffffffffffffffffffffffffffffffffffffff16600960009054906101000a900473ffffffffffffffffffffffffffffffffffffffff1673ffffffffffffffffffffffffffffffffffffffff16141515611d6357600080fd5b80600960006101000a81548173ffffffffffffffffffffffffffffffffffffffff021916908373ffffffffffffffffffffffffffffffffffffffff16021790555050565b828054600181600116156101000203166002900490600052602060002090601f016020900481019282601f10611de05780548555611e1d565b82800160010185558215611e1d57600052602060002091601f016020900482015b82811115611e1c578254825591600101919060010190611e01565b5b509050611e2a9190611f02565b5090565b815481835581811511611e5557818360005260206000209182019101611e549190611f02565b5b505050565b602060405190810160405280600081525090565b828054600181600116156101000203166002900490600052602060002090601f016020900481019282601f10611eaf57805160ff1916838001178555611edd565b82800160010185558215611edd579182015b82811115611edc578251825591602001919060010190611ec1565b5b509050611eea9190611f02565b5090565b602060405190810160405280600081525090565b611f2491905b80821115611f20576000816000905550600101611f08565b5090565b905600a165627a7a7230582001ef78b5c20c64db3b95b8eb73f5ccf31e56f2d91170a1b32b303345294a04500029",
  "source": "pragma solidity ^0.4.0;\r\n\r\ncontract Inventory{\r\n     \r\n   uint256 public productCount=0;\r\n   uint256 public ordercount=0;\r\n   uint256[] public p_id;\r\n   uint256[] public o_id;\r\n   uint256[] public c_id;\r\n   \r\n    struct product{\r\n        uint pid;\r\n        string pname;\r\n        string pbrand;\r\n        uint pquantity;\r\n        uint pprice;\r\n        uint time; \r\n       }\r\n     struct productorder{\r\n             uint id2;\r\n             uint id1;\r\n             address cid;\r\n             string name;\r\n             string brand;\r\n             uint quantity;\r\n             uint price;\r\n             uint time;\r\n             uint status;\r\n            \r\n            }\r\n        \r\n       \r\n        \r\n        struct in_order{\r\n            uint ipid;\r\n            uint iquantity;\r\n            uint iprice;\r\n           }\r\n     struct cancellorder{\r\n         uint oid;\r\n         uint pid;\r\n         address c_address;\r\n         uint price;\r\n         uint time;\r\n     }\r\n                          \r\n    \r\n    mapping(uint=>product)public PROD;\r\n    mapping(uint=>productorder)public ORDER;\r\n    mapping(uint=>in_order)public UPDATE;\r\n    mapping(uint=>cancellorder)public CANCELL;\r\n    \r\n    address public owner;\r\n\r\n    function Inventory() public {\r\n        owner = msg.sender;\r\n    }\r\n\r\n    modifier onlyOwner {\r\n        require (owner == msg.sender);\r\n        _;\r\n    }\r\n    \r\n    function view1(uint id)public constant returns(uint){\r\n         return (PROD[id].pprice);\r\n     }\r\n    \r\n    function p_details(uint id,string name,string brand,uint quantity,uint price)public  payable onlyOwner   {\r\n        require(PROD[id].pid!=id);\r\n        PROD[id].pid = id;\r\n        PROD[id].pname = name;\r\n        PROD[id].pbrand = brand;\r\n        PROD[id].pquantity = quantity;\r\n        PROD[id].pprice = price;\r\n        PROD[id].time = now;\r\n        p_id.push(id);\r\n        productCount++;\r\n    }  \r\n   \r\n   function getProductsCount() public view returns(uint256){\r\n       return p_id.length;\r\n   }\r\n\r\n   function getProductId(uint _id) public view returns(uint256)\r\n   {\r\n       return p_id[_id];\r\n   }\r\n\r\n    function order(uint id2,uint id,uint pquantity)public payable {\r\n        \r\n           require(id ==PROD[id].pid && pquantity <= PROD[id].pquantity);\r\n           ORDER[id2].id2 = id2;\r\n           ORDER[id2].cid = msg.sender;\r\n           ORDER[id2].id1=id;\r\n           ORDER[id2].name =PROD[id].pname ;\r\n           ORDER[id2].brand =  PROD[id].pbrand;\r\n           ORDER[id2].quantity=pquantity;\r\n           ORDER[id2].price = pquantity *  PROD[id].pprice; \r\n           ORDER[id2].time = now;\r\n           ORDER[id2].status = 1;\r\n           PROD[id].pquantity-=pquantity;\r\n           ORDER[id2].price = msg.value;\r\n           o_id.push(id2);\r\n           ordercount++;\r\n          \r\n           \r\n    }\r\n    \r\n    function getOrderCount()public view returns(uint256){\r\n        return o_id.length;\r\n    }\r\n     \r\n   \r\n    function update_product(uint id,uint _quantity,uint price)public onlyOwner  {\r\n       \r\n       UPDATE[id].ipid = id;\r\n       UPDATE[id].iquantity = _quantity;\r\n       UPDATE[id].iprice = price;\r\n       PROD[id].pquantity+=_quantity;\r\n        PROD[id].pprice= price;\r\n       \r\n\r\n       }\r\n      \r\n         \r\n       function viewproduct(uint id)public constant returns(uint,string,string,uint,uint,uint){\r\n           \r\n           return(PROD[id].pid,PROD[id].pname,PROD[id].pbrand,  PROD[id].pquantity,PROD[id].pprice,PROD[id].time);\r\n       } \r\n       \r\n       \r\n       function vieworder(uint id2)public constant returns(uint,address,uint,uint,uint,uint,uint){\r\n                  \r\n           return (ORDER[id2].id2,ORDER[id2].cid, ORDER[id2].id1,  ORDER[id2].quantity,ORDER[id2].price, ORDER[id2].time, ORDER[id2].status);\r\n           \r\n       }\r\n       \r\n       function outOfStock(uint id)public constant returns(uint,uint,uint){\r\n            return (PROD[id].pid,PROD[id].pquantity,PROD[id].pprice);\r\n       }\r\n       \r\n       function ordercancel(uint oid,uint id)public{\r\n         require(msg.sender== ORDER[oid].cid);\r\n         uint t =(now -  ORDER[oid].time );\r\n           require(t<= 3600 seconds);\r\n       \r\n            PROD[id].pquantity += ORDER[oid].quantity ;\r\n            ORDER[oid].status = 0;\r\n           CANCELL[oid].oid = oid;\r\n           CANCELL[oid].pid = id ;\r\n           CANCELL[oid]. c_address =  ORDER[oid].cid ;\r\n           CANCELL[oid].price =  ORDER[oid].price;\r\n           CANCELL[oid].time = now;\r\n                                   \r\n           msg.sender.transfer(ORDER[oid].price);\r\n            c_id.push(oid);\r\n            \r\n            \r\n         }\r\n         \r\n         function getcancell_list()public view returns(uint256[]){\r\n             return c_id;\r\n         }\r\n        \r\n         \r\n         function cancel_list(uint oid)public constant returns(uint,uint,address,uint,uint){\r\n             return (CANCELL[oid].oid , CANCELL[oid].pid , CANCELL[oid]. c_address, CANCELL[oid].price , CANCELL[oid].time);\r\n         }\r\n    \r\n        function returnether(address x,uint256 _cid)public payable{\r\n            delete c_id[_cid];\r\n            x .transfer(msg.value);             \r\n        }\r\n        function transferOwnership(address newowner) payable public onlyOwner {\r\n            owner = newowner;\r\n        }\r\n        function getbalance()public constant returns(uint256){\r\n            return  address(this).balance;\r\n        }\r\n        function withdraw()payable public onlyOwner returns(bool) {\r\n    \r\n            owner.transfer(address(this).balance);\r\n            return true;\r\n        }\r\n        \r\n        \r\n\r\n\r\n    }\r\n   \r\n     \r\n ",
  "sourcePath": "C:\\Users\\anusuya.0917\\Desktop\\Inventory-master\\Inventory-master\\contracts\\Inventory.sol",
  "compiler": {
    "name": "solc",
    "version": "0.4.21+commit.dfe3193c.Emscripten.clang"
  },
  "schemaVersion": "2.0.0",
  "updatedAt": "2018-05-14T13:08:40.016Z"
}