{
  "contractName": "Inventory",
  "abi": [
    {
      "constant": true,
      "inputs": [
        {
          "name": "",
          "type": "uint256"
        }
      ],
      "name": "ORDER",
      "outputs": [
        {
          "name": "id2",
          "type": "uint256"
        },
        {
          "name": "id1",
          "type": "uint256"
        },
        {
          "name": "cid",
          "type": "address"
        },
        {
          "name": "name",
          "type": "string"
        },
        {
          "name": "brand",
          "type": "string"
        },
        {
          "name": "quantity",
          "type": "uint256"
        },
        {
          "name": "price",
          "type": "uint256"
        },
        {
          "name": "time",
          "type": "uint256"
        }
      ],
      "payable": false,
      "stateMutability": "view",
      "type": "function"
    },
    {
      "constant": true,
      "inputs": [],
      "name": "customer",
      "outputs": [
        {
          "name": "",
          "type": "address"
        }
      ],
      "payable": false,
      "stateMutability": "view",
      "type": "function"
    },
    {
      "constant": true,
      "inputs": [
        {
          "name": "",
          "type": "uint256"
        }
      ],
      "name": "PROD",
      "outputs": [
        {
          "name": "pid",
          "type": "uint256"
        },
        {
          "name": "pname",
          "type": "string"
        },
        {
          "name": "pbrand",
          "type": "string"
        },
        {
          "name": "pquantity",
          "type": "uint256"
        },
        {
          "name": "pprice",
          "type": "uint256"
        },
        {
          "name": "time",
          "type": "uint256"
        }
      ],
      "payable": false,
      "stateMutability": "view",
      "type": "function"
    },
    {
      "constant": true,
      "inputs": [
        {
          "name": "",
          "type": "uint256"
        }
      ],
      "name": "c_id",
      "outputs": [
        {
          "name": "",
          "type": "uint256"
        }
      ],
      "payable": false,
      "stateMutability": "view",
      "type": "function"
    },
    {
      "constant": true,
      "inputs": [
        {
          "name": "",
          "type": "uint256"
        }
      ],
      "name": "UPDATE",
      "outputs": [
        {
          "name": "ipid",
          "type": "uint256"
        },
        {
          "name": "iquantity",
          "type": "uint256"
        },
        {
          "name": "iprice",
          "type": "uint256"
        }
      ],
      "payable": false,
      "stateMutability": "view",
      "type": "function"
    },
    {
      "constant": true,
      "inputs": [
        {
          "name": "",
          "type": "uint256"
        }
      ],
      "name": "o_id",
      "outputs": [
        {
          "name": "",
          "type": "uint256"
        }
      ],
      "payable": false,
      "stateMutability": "view",
      "type": "function"
    },
    {
      "constant": true,
      "inputs": [],
      "name": "owner",
      "outputs": [
        {
          "name": "",
          "type": "address"
        }
      ],
      "payable": false,
      "stateMutability": "view",
      "type": "function"
    },
    {
      "constant": true,
      "inputs": [
        {
          "name": "",
          "type": "uint256"
        }
      ],
      "name": "CANCELL",
      "outputs": [
        {
          "name": "oid",
          "type": "uint256"
        },
        {
          "name": "pid",
          "type": "uint256"
        },
        {
          "name": "c_address",
          "type": "address"
        },
        {
          "name": "price",
          "type": "uint256"
        },
        {
          "name": "time",
          "type": "uint256"
        }
      ],
      "payable": false,
      "stateMutability": "view",
      "type": "function"
    },
    {
      "constant": true,
      "inputs": [
        {
          "name": "",
          "type": "uint256"
        }
      ],
      "name": "p_id",
      "outputs": [
        {
          "name": "",
          "type": "uint256"
        }
      ],
      "payable": false,
      "stateMutability": "view",
      "type": "function"
    },
    {
      "constant": true,
      "inputs": [],
      "name": "productCount",
      "outputs": [
        {
          "name": "",
          "type": "uint256"
        }
      ],
      "payable": false,
      "stateMutability": "view",
      "type": "function"
    },
    {
      "inputs": [],
      "payable": false,
      "stateMutability": "nonpayable",
      "type": "constructor"
    },
    {
      "constant": true,
      "inputs": [
        {
          "name": "id",
          "type": "uint256"
        }
      ],
      "name": "view1",
      "outputs": [
        {
          "name": "",
          "type": "uint256"
        }
      ],
      "payable": false,
      "stateMutability": "view",
      "type": "function"
    },
    {
      "constant": false,
      "inputs": [
        {
          "name": "id",
          "type": "uint256"
        },
        {
          "name": "name",
          "type": "string"
        },
        {
          "name": "brand",
          "type": "string"
        },
        {
          "name": "quantity",
          "type": "uint256"
        },
        {
          "name": "price",
          "type": "uint256"
        }
      ],
      "name": "p_details",
      "outputs": [],
      "payable": true,
      "stateMutability": "payable",
      "type": "function"
    },
    {
      "constant": true,
      "inputs": [],
      "name": "getProductsCount",
      "outputs": [
        {
          "name": "",
          "type": "uint256"
        }
      ],
      "payable": false,
      "stateMutability": "view",
      "type": "function"
    },
    {
      "constant": true,
      "inputs": [
        {
          "name": "_id",
          "type": "uint256"
        }
      ],
      "name": "getProductId",
      "outputs": [
        {
          "name": "",
          "type": "uint256"
        }
      ],
      "payable": false,
      "stateMutability": "view",
      "type": "function"
    },
    {
      "constant": false,
      "inputs": [
        {
          "name": "id2",
          "type": "uint256"
        },
        {
          "name": "id",
          "type": "uint256"
        },
        {
          "name": "pquantity",
          "type": "uint256"
        }
      ],
      "name": "order",
      "outputs": [],
      "payable": true,
      "stateMutability": "payable",
      "type": "function"
    },
    {
      "constant": true,
      "inputs": [],
      "name": "getOrderCount",
      "outputs": [
        {
          "name": "",
          "type": "uint256"
        }
      ],
      "payable": false,
      "stateMutability": "view",
      "type": "function"
    },
    {
      "constant": false,
      "inputs": [
        {
          "name": "id",
          "type": "uint256"
        },
        {
          "name": "_quantity",
          "type": "uint256"
        },
        {
          "name": "price",
          "type": "uint256"
        }
      ],
      "name": "update_product",
      "outputs": [],
      "payable": false,
      "stateMutability": "nonpayable",
      "type": "function"
    },
    {
      "constant": true,
      "inputs": [
        {
          "name": "id",
          "type": "uint256"
        }
      ],
      "name": "viewproduct",
      "outputs": [
        {
          "name": "",
          "type": "uint256"
        },
        {
          "name": "",
          "type": "string"
        },
        {
          "name": "",
          "type": "string"
        },
        {
          "name": "",
          "type": "uint256"
        },
        {
          "name": "",
          "type": "uint256"
        },
        {
          "name": "",
          "type": "uint256"
        }
      ],
      "payable": false,
      "stateMutability": "view",
      "type": "function"
    },
    {
      "constant": true,
      "inputs": [
        {
          "name": "id2",
          "type": "uint256"
        }
      ],
      "name": "vieworder",
      "outputs": [
        {
          "name": "",
          "type": "uint256"
        },
        {
          "name": "",
          "type": "address"
        },
        {
          "name": "",
          "type": "uint256"
        },
        {
          "name": "",
          "type": "string"
        },
        {
          "name": "",
          "type": "uint256"
        },
        {
          "name": "",
          "type": "uint256"
        },
        {
          "name": "",
          "type": "uint256"
        }
      ],
      "payable": false,
      "stateMutability": "view",
      "type": "function"
    },
    {
      "constant": true,
      "inputs": [
        {
          "name": "id",
          "type": "uint256"
        }
      ],
      "name": "outOfStock",
      "outputs": [
        {
          "name": "",
          "type": "uint256"
        },
        {
          "name": "",
          "type": "uint256"
        }
      ],
      "payable": false,
      "stateMutability": "view",
      "type": "function"
    },
    {
      "constant": false,
      "inputs": [
        {
          "name": "oid",
          "type": "uint256"
        },
        {
          "name": "id",
          "type": "uint256"
        }
      ],
      "name": "ordercancel",
      "outputs": [],
      "payable": false,
      "stateMutability": "nonpayable",
      "type": "function"
    },
    {
      "constant": true,
      "inputs": [],
      "name": "getcancell_list",
      "outputs": [
        {
          "name": "",
          "type": "uint256[]"
        }
      ],
      "payable": false,
      "stateMutability": "view",
      "type": "function"
    },
    {
      "constant": true,
      "inputs": [
        {
          "name": "oid",
          "type": "uint256"
        }
      ],
      "name": "cancel_list",
      "outputs": [
        {
          "name": "",
          "type": "uint256"
        },
        {
          "name": "",
          "type": "uint256"
        },
        {
          "name": "",
          "type": "address"
        },
        {
          "name": "",
          "type": "uint256"
        },
        {
          "name": "",
          "type": "uint256"
        }
      ],
      "payable": false,
      "stateMutability": "view",
      "type": "function"
    },
    {
      "constant": false,
      "inputs": [
        {
          "name": "x",
          "type": "address"
        },
        {
          "name": "_cid",
          "type": "uint256"
        }
      ],
      "name": "returnether",
      "outputs": [],
      "payable": true,
      "stateMutability": "payable",
      "type": "function"
    }
  ],
  "bytecode": "0x6080604052600060015534801561001557600080fd5b5033600960006101000a81548173ffffffffffffffffffffffffffffffffffffffff021916908373ffffffffffffffffffffffffffffffffffffffff160217905550611e8c806100666000396000f30060806040526004361061013e576000357c0100000000000000000000000000000000000000000000000000000000900463ffffffff16806303c89492146101435780630e882129146102ab5780631a79b79a146102df578063218915e51461034b5780632804b2c0146103825780632ad0eaf4146103d957806339a5b45414610507578063481009d91461054857806349bc60c0146106445780635786fd401461068c5780635ae637cc146106b75780636a45065214610777578063721a13e9146107b857806378796426146108e65780637f230f061461093557806386de905314610976578063870307c5146109ff5780638d0a5fbb14610a405780638da5cb5b14610a6b57806392b1a83d14610ac25780639f77a60514610b4b578063aece059014610b8c578063d6c0f72814610bcd578063e0f6ef8714610c0d575b600080fd5b34801561014f57600080fd5b5061016e60048036038101908080359060200190929190505050610c38565b604051808981526020018881526020018773ffffffffffffffffffffffffffffffffffffffff1673ffffffffffffffffffffffffffffffffffffffff1681526020018060200180602001868152602001858152602001848152602001838103835288818151815260200191508051906020019080838360005b838110156102025780820151818401526020810190506101e7565b50505050905090810190601f16801561022f5780820380516001836020036101000a031916815260200191505b50838103825287818151815260200191508051906020019080838360005b8381101561026857808201518184015260208101905061024d565b50505050905090810190601f1680156102955780820380516001836020036101000a031916815260200191505b509a505050505050505050505060405180910390f35b6102dd600480360381019080803590602001909291908035906020019092919080359060200190929190505050610dd0565b005b3480156102eb57600080fd5b506102f4611060565b6040518080602001828103825283818151815260200191508051906020019060200280838360005b8381101561033757808201518184015260208101905061031c565b505050509050019250505060405180910390f35b34801561035757600080fd5b5061038060048036038101908080359060200190929190803590602001909291905050506110b8565b005b34801561038e57600080fd5b50610397611308565b604051808273ffffffffffffffffffffffffffffffffffffffff1673ffffffffffffffffffffffffffffffffffffffff16815260200191505060405180910390f35b3480156103e557600080fd5b506104046004803603810190808035906020019092919050505061132d565b604051808781526020018060200180602001868152602001858152602001848152602001838103835288818151815260200191508051906020019080838360005b83811015610460578082015181840152602081019050610445565b50505050905090810190601f16801561048d5780820380516001836020036101000a031916815260200191505b50838103825287818151815260200191508051906020019080838360005b838110156104c65780820151818401526020810190506104ab565b50505050905090810190601f1680156104f35780820380516001836020036101000a031916815260200191505b509850505050505050505060405180910390f35b34801561051357600080fd5b5061053260048036038101908080359060200190929190505050611499565b6040518082815260200191505060405180910390f35b34801561055457600080fd5b50610573600480360381019080803590602001909291905050506114bc565b604051808881526020018773ffffffffffffffffffffffffffffffffffffffff1673ffffffffffffffffffffffffffffffffffffffff16815260200186815260200180602001858152602001848152602001838152602001828103825286818151815260200191508051906020019080838360005b838110156106035780820151818401526020810190506105e8565b50505050905090810190601f1680156106305780820380516001836020036101000a031916815260200191505b509850505050505050505060405180910390f35b34801561065057600080fd5b5061066f6004803603810190808035906020019092919050505061163d565b604051808381526020018281526020019250505060405180910390f35b34801561069857600080fd5b506106a1611677565b6040518082815260200191505060405180910390f35b61077560048036038101908080359060200190929190803590602001908201803590602001908080601f0160208091040260200160405190810160405280939291908181526020018383808284378201915050505050509192919290803590602001908201803590602001908080601f01602080910402602001604051908101604052809392919081815260200183838082843782019150505050505091929192908035906020019092919080359060200190929190505050611684565b005b34801561078357600080fd5b506107b660048036038101908080359060200190929190803590602001909291908035906020019092919050505061180c565b005b3480156107c457600080fd5b506107e3600480360381019080803590602001909291905050506118fd565b604051808781526020018060200180602001868152602001858152602001848152602001838103835288818151815260200191508051906020019080838360005b8381101561083f578082015181840152602081019050610824565b50505050905090810190601f16801561086c5780820380516001836020036101000a031916815260200191505b50838103825287818151815260200191508051906020019080838360005b838110156108a557808201518184015260208101905061088a565b50505050905090810190601f1680156108d25780820380516001836020036101000a031916815260200191505b509850505050505050505060405180910390f35b3480156108f257600080fd5b5061091160048036038101908080359060200190929190505050611adc565b60405180848152602001838152602001828152602001935050505060405180910390f35b34801561094157600080fd5b5061096060048036038101908080359060200190929190505050611b06565b6040518082815260200191505060405180910390f35b34801561098257600080fd5b506109a160048036038101908080359060200190929190505050611b29565b604051808681526020018581526020018473ffffffffffffffffffffffffffffffffffffffff1673ffffffffffffffffffffffffffffffffffffffff1681526020018381526020018281526020019550505050505060405180910390f35b348015610a0b57600080fd5b50610a2a60048036038101908080359060200190929190505050611bd7565b6040518082815260200191505060405180910390f35b348015610a4c57600080fd5b50610a55611bf7565b6040518082815260200191505060405180910390f35b348015610a7757600080fd5b50610a80611c04565b604051808273ffffffffffffffffffffffffffffffffffffffff1673ffffffffffffffffffffffffffffffffffffffff16815260200191505060405180910390f35b348015610ace57600080fd5b50610aed60048036038101908080359060200190929190505050611c2a565b604051808681526020018581526020018473ffffffffffffffffffffffffffffffffffffffff1673ffffffffffffffffffffffffffffffffffffffff1681526020018381526020018281526020019550505050505060405180910390f35b348015610b5757600080fd5b50610b7660048036038101908080359060200190929190505050611c80565b6040518082815260200191505060405180910390f35b348015610b9857600080fd5b50610bb760048036038101908080359060200190929190505050611ca3565b6040518082815260200191505060405180910390f35b610c0b600480360381019080803573ffffffffffffffffffffffffffffffffffffffff16906020019092919080359060200190929190505050611cc6565b005b348015610c1957600080fd5b50610c22611d2e565b6040518082815260200191505060405180910390f35b60066020528060005260406000206000915090508060000154908060010154908060020160009054906101000a900473ffffffffffffffffffffffffffffffffffffffff1690806003018054600181600116156101000203166002900480601f016020809104026020016040519081016040528092919081815260200182805460018160011615610100020316600290048015610d165780601f10610ceb57610100808354040283529160200191610d16565b820191906000526020600020905b815481529060010190602001808311610cf957829003601f168201915b505050505090806004018054600181600116156101000203166002900480601f016020809104026020016040519081016040528092919081815260200182805460018160011615610100020316600290048015610db45780601f10610d8957610100808354040283529160200191610db4565b820191906000526020600020905b815481529060010190602001808311610d9757829003601f168201915b5050505050908060050154908060060154908060070154905088565b600560008381526020019081526020016000206000015482148015610e0b575060056000838152602001908152602001600020600301548111155b1515610e1657600080fd5b826006600085815260200190815260200160002060000181905550336006600085815260200190815260200160002060020160006101000a81548173ffffffffffffffffffffffffffffffffffffffff021916908373ffffffffffffffffffffffffffffffffffffffff16021790555081600660008581526020019081526020016000206001018190555060056000838152602001908152602001600020600101600660008581526020019081526020016000206003019080546001816001161561010002031660029004610eec929190611d34565b5060056000838152602001908152602001600020600201600660008581526020019081526020016000206004019080546001816001161561010002031660029004610f38929190611d34565b50806006600085815260200190815260200160002060050181905550600560008381526020019081526020016000206004015481026006600085815260200190815260200160002060060181905550426006600085815260200190815260200160002060070181905550806005600084815260200190815260200160002060030160008282540392505081905550600960009054906101000a900473ffffffffffffffffffffffffffffffffffffffff1673ffffffffffffffffffffffffffffffffffffffff166108fc349081150290604051600060405180830381858888f1935050505015801561102e573d6000803e3d6000fd5b506003839080600181540180825580915050906001820390600052602060002001600090919290919091505550505050565b606060048054806020026020016040519081016040528092919081815260200182805480156110ae57602002820191906000526020600020905b81548152602001906001019080831161109a575b5050505050905090565b60006006600084815260200190815260200160002060020160009054906101000a900473ffffffffffffffffffffffffffffffffffffffff1673ffffffffffffffffffffffffffffffffffffffff163373ffffffffffffffffffffffffffffffffffffffff1614151561112a57600080fd5b600660008481526020019081526020016000206007015442039050610e10811115151561115657600080fd5b60066000848152602001908152602001600020600501546005600084815260200190815260200160002060030160008282540192505081905550600660008481526020019081526020016000206005015460066000858152602001908152602001600020600501600082825403925050819055508260086000858152602001908152602001600020600001819055508160086000858152602001908152602001600020600101819055506006600084815260200190815260200160002060020160009054906101000a900473ffffffffffffffffffffffffffffffffffffffff166008600085815260200190815260200160002060020160006101000a81548173ffffffffffffffffffffffffffffffffffffffff021916908373ffffffffffffffffffffffffffffffffffffffff160217905550600660008481526020019081526020016000206006015460086000858152602001908152602001600020600301819055504260086000858152602001908152602001600020600401819055506004839080600181540180825580915050906001820390600052602060002001600090919290919091505550505050565b6000809054906101000a900473ffffffffffffffffffffffffffffffffffffffff1681565b6005602052806000526040600020600091509050806000015490806001018054600181600116156101000203166002900480601f0160208091040260200160405190810160405280929190818152602001828054600181600116156101000203166002900480156113df5780601f106113b4576101008083540402835291602001916113df565b820191906000526020600020905b8154815290600101906020018083116113c257829003601f168201915b505050505090806002018054600181600116156101000203166002900480601f01602080910402602001604051908101604052809291908181526020018280546001816001161561010002031660029004801561147d5780601f106114525761010080835404028352916020019161147d565b820191906000526020600020905b81548152906001019060200180831161146057829003601f168201915b5050505050908060030154908060040154908060050154905086565b6004818154811015156114a857fe5b906000526020600020016000915090505481565b6000806000606060008060006006600089815260200190815260200160002060000154600660008a815260200190815260200160002060020160009054906101000a900473ffffffffffffffffffffffffffffffffffffffff16600660008b815260200190815260200160002060010154600660008c8152602001908152602001600020600301600660008d815260200190815260200160002060050154600660008e815260200190815260200160002060060154600660008f815260200190815260200160002060070154838054600181600116156101000203166002900480601f01602080910402602001604051908101604052809291908181526020018280546001816001161561010002031660029004801561161d5780601f106115f25761010080835404028352916020019161161d565b820191906000526020600020905b81548152906001019060200180831161160057829003601f168201915b505050505093509650965096509650965096509650919395979092949650565b6000806005600084815260200190815260200160002060000154600560008581526020019081526020016000206003015491509150915091565b6000600280549050905090565b3373ffffffffffffffffffffffffffffffffffffffff16600960009054906101000a900473ffffffffffffffffffffffffffffffffffffffff1673ffffffffffffffffffffffffffffffffffffffff161415156116e057600080fd5b8460056000878152602001908152602001600020600001541415151561170557600080fd5b8460056000878152602001908152602001600020600001819055508360056000878152602001908152602001600020600101908051906020019061174a929190611dbb565b5082600560008781526020019081526020016000206002019080519060200190611775929190611dbb565b5081600560008781526020019081526020016000206003018190555080600560008781526020019081526020016000206004018190555042600560008781526020019081526020016000206005018190555060016000815480929190600101919050555060028590806001815401808255809150509060018203906000526020600020016000909192909190915055505050505050565b3373ffffffffffffffffffffffffffffffffffffffff16600960009054906101000a900473ffffffffffffffffffffffffffffffffffffffff1673ffffffffffffffffffffffffffffffffffffffff1614151561186857600080fd5b826007600085815260200190815260200160002060000181905550816007600085815260200190815260200160002060010181905550806007600085815260200190815260200160002060020181905550816005600085815260200190815260200160002060030160008282540192505081905550806005600085815260200190815260200160002060040181905550505050565b60006060806000806000600560008881526020019081526020016000206000015460056000898152602001908152602001600020600101600560008a8152602001908152602001600020600201600560008b815260200190815260200160002060030154600560008c815260200190815260200160002060040154600560008d815260200190815260200160002060050154848054600181600116156101000203166002900480601f016020809104026020016040519081016040528092919081815260200182805460018160011615610100020316600290048015611a245780601f106119f957610100808354040283529160200191611a24565b820191906000526020600020905b815481529060010190602001808311611a0757829003601f168201915b50505050509450838054600181600116156101000203166002900480601f016020809104026020016040519081016040528092919081815260200182805460018160011615610100020316600290048015611ac05780601f10611a9557610100808354040283529160200191611ac0565b820191906000526020600020905b815481529060010190602001808311611aa357829003601f168201915b5050505050935095509550955095509550955091939550919395565b60076020528060005260406000206000915090508060000154908060010154908060020154905083565b600381815481101515611b1557fe5b906000526020600020016000915090505481565b6000806000806000600860008781526020019081526020016000206000015460086000888152602001908152602001600020600101546008600089815260200190815260200160002060020160009054906101000a900473ffffffffffffffffffffffffffffffffffffffff16600860008a815260200190815260200160002060030154600860008b8152602001908152602001600020600401549450945094509450945091939590929450565b600060056000838152602001908152602001600020600401549050919050565b6000600380549050905090565b600960009054906101000a900473ffffffffffffffffffffffffffffffffffffffff1681565b60086020528060005260406000206000915090508060000154908060010154908060020160009054906101000a900473ffffffffffffffffffffffffffffffffffffffff16908060030154908060040154905085565b6000600282815481101515611c9157fe5b90600052602060002001549050919050565b600281815481101515611cb257fe5b906000526020600020016000915090505481565b600481815481101515611cd557fe5b90600052602060002001600090558173ffffffffffffffffffffffffffffffffffffffff166108fc349081150290604051600060405180830381858888f19350505050158015611d29573d6000803e3d6000fd5b505050565b60015481565b828054600181600116156101000203166002900490600052602060002090601f016020900481019282601f10611d6d5780548555611daa565b82800160010185558215611daa57600052602060002091601f016020900482015b82811115611da9578254825591600101919060010190611d8e565b5b509050611db79190611e3b565b5090565b828054600181600116156101000203166002900490600052602060002090601f016020900481019282601f10611dfc57805160ff1916838001178555611e2a565b82800160010185558215611e2a579182015b82811115611e29578251825591602001919060010190611e0e565b5b509050611e379190611e3b565b5090565b611e5d91905b80821115611e59576000816000905550600101611e41565b5090565b905600a165627a7a72305820bfc540b4e3e4856b650c5489bf369363e56d6d7d7bfd2fdcd2916938cdd997810029",
  "source": "pragma solidity ^0.4.0;\n\ncontract Inventory{\n     \n    \n     \n   address public customer;\n   uint256 public productCount=0;\n   uint256[] public p_id;\n   uint256[] public o_id;\n   uint256[] public c_id;\n   \n    struct product{\n        uint pid;\n        string pname;\n        string pbrand;\n        uint pquantity;\n        uint pprice;\n        uint time;\n       }\n     struct productorder{\n             uint id2;\n             uint id1;\n             address cid;\n             string name;\n             string brand;\n             uint quantity;\n             uint price;\n             uint time;\n            }\n        \n       \n        \n        struct in_order{\n            uint ipid;\n            uint iquantity;\n            uint iprice;\n           }\n     struct cancellorder{\n         uint oid;\n         uint pid;\n         address c_address;\n         uint price;\n         uint time;\n     }\n                          \n    \n    mapping(uint=>product)public PROD;\n    mapping(uint=>productorder)public ORDER;\n    mapping(uint=>in_order)public UPDATE;\n    mapping(uint=>cancellorder)public CANCELL;\n    \n    address public owner;\n\n    constructor()public {\n        owner = msg.sender;\n    }\n\n    modifier onlyOwner {\n        require (owner == msg.sender);\n        _;\n    }\n    \n    function view1(uint id)public constant returns(uint){\n         return (PROD[id].pprice);\n     }\n    \n    function p_details(uint id,string name,string brand,uint quantity,uint price)public  payable onlyOwner   {\n        require(PROD[id].pid!=id);\n        PROD[id].pid = id;\n        PROD[id].pname = name;\n        PROD[id].pbrand = brand;\n        PROD[id].pquantity = quantity;\n        PROD[id].pprice = price;\n        PROD[id].time = now;\n        productCount++;\n        p_id.push(id);\n        \n    }  \n   \n   function getProductsCount() public view returns(uint256){\n       return p_id.length;\n   }\n\n   function getProductId(uint _id) public view returns(uint256)\n   {\n       return p_id[_id];\n   }\n\n    function order(uint id2,uint id,uint pquantity)public payable {\n        \n           require(id ==PROD[id].pid && pquantity <= PROD[id].pquantity);\n           ORDER[id2].id2 = id2;\n           ORDER[id2].cid = msg.sender;\n           ORDER[id2].id1=id;\n           ORDER[id2].name =PROD[id].pname ;\n           ORDER[id2].brand =  PROD[id].pbrand;\n           ORDER[id2].quantity=pquantity;\n           ORDER[id2].price = pquantity *  PROD[id].pprice; \n           ORDER[id2].time = now;\n           PROD[id].pquantity-=pquantity;\n           owner.transfer(msg.value);\n           o_id.push(id2);\n           \n    }\n    \n    function getOrderCount()public view returns(uint256){\n        return o_id.length;\n    }\n     \n   \n    function update_product(uint id,uint _quantity,uint price)public onlyOwner  {\n       \n       UPDATE[id].ipid = id;\n       UPDATE[id].iquantity = _quantity;\n       UPDATE[id].iprice = price;\n       PROD[id].pquantity+=_quantity;\n        PROD[id].pprice= price;\n       \n\n       }\n      \n         \n       function viewproduct(uint id)public constant returns(uint,string,string,uint,uint,uint){\n           \n           return(PROD[id].pid,PROD[id].pname,PROD[id].pbrand,  PROD[id].pquantity,PROD[id].pprice,PROD[id].time);\n       } \n       \n       \n       function vieworder(uint id2)public constant returns(uint,address,uint,string,uint,uint,uint){\n                  \n           return (ORDER[id2].id2,ORDER[id2].cid, ORDER[id2].id1, ORDER[id2].name , ORDER[id2].quantity,ORDER[id2].price, ORDER[id2].time);\n           \n       }\n       \n       function outOfStock(uint id)public constant returns(uint,uint){\n            return (PROD[id].pid,PROD[id].pquantity);\n       }\n       \n       function ordercancel(uint oid,uint id)public  {\n         require(msg.sender== ORDER[oid].cid);\n         uint t =(now -  ORDER[oid].time );\n           require(t<= 3600 seconds);\n       \n         PROD[id].pquantity += ORDER[oid].quantity ;\n         ORDER[oid].quantity -= ORDER[oid].quantity; \n           CANCELL[oid].oid = oid;\n           CANCELL[oid].pid = id ;\n           CANCELL[oid]. c_address =  ORDER[oid].cid ;\n           CANCELL[oid].price =  ORDER[oid].price;\n           CANCELL[oid].time = now;\n            c_id.push(oid);\n            \n         }\n         \n         function getcancell_list()public view returns(uint256[]){\n             return c_id;\n         }\n        \n         \n         function cancel_list(uint oid)public constant returns(uint,uint,address,uint,uint){\n             return (CANCELL[oid].oid , CANCELL[oid].pid , CANCELL[oid]. c_address, CANCELL[oid].price , CANCELL[oid].time);\n         }\n    \n        function returnether(address x,uint256 _cid)public payable{\n            delete c_id[_cid];\n            x .transfer(msg.value);             \n        }\n        \n    }\n   \n     \n ",
  "sourcePath": "/home/mnwsoftware/projects/solidity/Inventory/contracts/Inventory.sol",
  "compiler": {
    "name": "solc",
    "version": "0.4.23+commit.124ca40d.Emscripten.clang"
  },
  "schemaVersion": "2.0.0",
  "updatedAt": "2018-05-11T13:51:10.150Z"
}