{
  "contractName": "Inventory",
  "abi": [
    {
      "constant": true,
      "inputs": [
        {
          "name": "",
          "type": "uint256"
        }
      ],
      "name": "ORDER",
      "outputs": [
        {
          "name": "id2",
          "type": "uint256"
        },
        {
          "name": "id1",
          "type": "uint256"
        },
        {
          "name": "cid",
          "type": "address"
        },
        {
          "name": "name",
          "type": "string"
        },
        {
          "name": "brand",
          "type": "string"
        },
        {
          "name": "quantity",
          "type": "uint256"
        },
        {
          "name": "price",
          "type": "uint256"
        },
        {
          "name": "time",
          "type": "uint256"
        },
        {
          "name": "status",
          "type": "uint256"
        }
      ],
      "payable": false,
      "stateMutability": "view",
      "type": "function"
    },
    {
      "constant": true,
      "inputs": [],
      "name": "customer",
      "outputs": [
        {
          "name": "",
          "type": "address"
        }
      ],
      "payable": false,
      "stateMutability": "view",
      "type": "function"
    },
    {
      "constant": true,
      "inputs": [
        {
          "name": "",
          "type": "uint256"
        }
      ],
      "name": "PROD",
      "outputs": [
        {
          "name": "pid",
          "type": "uint256"
        },
        {
          "name": "pname",
          "type": "string"
        },
        {
          "name": "pbrand",
          "type": "string"
        },
        {
          "name": "pquantity",
          "type": "uint256"
        },
        {
          "name": "pprice",
          "type": "uint256"
        },
        {
          "name": "time",
          "type": "uint256"
        }
      ],
      "payable": false,
      "stateMutability": "view",
      "type": "function"
    },
    {
      "constant": true,
      "inputs": [
        {
          "name": "",
          "type": "uint256"
        }
      ],
      "name": "c_id",
      "outputs": [
        {
          "name": "",
          "type": "uint256"
        }
      ],
      "payable": false,
      "stateMutability": "view",
      "type": "function"
    },
    {
      "constant": true,
      "inputs": [
        {
          "name": "",
          "type": "uint256"
        }
      ],
      "name": "UPDATE",
      "outputs": [
        {
          "name": "ipid",
          "type": "uint256"
        },
        {
          "name": "iquantity",
          "type": "uint256"
        },
        {
          "name": "iprice",
          "type": "uint256"
        }
      ],
      "payable": false,
      "stateMutability": "view",
      "type": "function"
    },
    {
      "constant": true,
      "inputs": [
        {
          "name": "",
          "type": "uint256"
        }
      ],
      "name": "o_id",
      "outputs": [
        {
          "name": "",
          "type": "uint256"
        }
      ],
      "payable": false,
      "stateMutability": "view",
      "type": "function"
    },
    {
      "constant": true,
      "inputs": [],
      "name": "owner",
      "outputs": [
        {
          "name": "",
          "type": "address"
        }
      ],
      "payable": false,
      "stateMutability": "view",
      "type": "function"
    },
    {
      "constant": true,
      "inputs": [
        {
          "name": "",
          "type": "uint256"
        }
      ],
      "name": "CANCELL",
      "outputs": [
        {
          "name": "oid",
          "type": "uint256"
        },
        {
          "name": "pid",
          "type": "uint256"
        },
        {
          "name": "c_address",
          "type": "address"
        },
        {
          "name": "price",
          "type": "uint256"
        },
        {
          "name": "time",
          "type": "uint256"
        }
      ],
      "payable": false,
      "stateMutability": "view",
      "type": "function"
    },
    {
      "constant": true,
      "inputs": [
        {
          "name": "",
          "type": "uint256"
        }
      ],
      "name": "p_id",
      "outputs": [
        {
          "name": "",
          "type": "uint256"
        }
      ],
      "payable": false,
      "stateMutability": "view",
      "type": "function"
    },
    {
      "constant": true,
      "inputs": [],
      "name": "productCount",
      "outputs": [
        {
          "name": "",
          "type": "uint256"
        }
      ],
      "payable": false,
      "stateMutability": "view",
      "type": "function"
    },
    {
      "inputs": [],
      "payable": false,
      "stateMutability": "nonpayable",
      "type": "constructor"
    },
    {
      "constant": true,
      "inputs": [
        {
          "name": "id",
          "type": "uint256"
        }
      ],
      "name": "view1",
      "outputs": [
        {
          "name": "",
          "type": "uint256"
        }
      ],
      "payable": false,
      "stateMutability": "view",
      "type": "function"
    },
    {
      "constant": false,
      "inputs": [
        {
          "name": "id",
          "type": "uint256"
        },
        {
          "name": "name",
          "type": "string"
        },
        {
          "name": "brand",
          "type": "string"
        },
        {
          "name": "quantity",
          "type": "uint256"
        },
        {
          "name": "price",
          "type": "uint256"
        }
      ],
      "name": "p_details",
      "outputs": [],
      "payable": true,
      "stateMutability": "payable",
      "type": "function"
    },
    {
      "constant": true,
      "inputs": [],
      "name": "getProductsCount",
      "outputs": [
        {
          "name": "",
          "type": "uint256"
        }
      ],
      "payable": false,
      "stateMutability": "view",
      "type": "function"
    },
    {
      "constant": true,
      "inputs": [
        {
          "name": "_id",
          "type": "uint256"
        }
      ],
      "name": "getProductId",
      "outputs": [
        {
          "name": "",
          "type": "uint256"
        }
      ],
      "payable": false,
      "stateMutability": "view",
      "type": "function"
    },
    {
      "constant": false,
      "inputs": [
        {
          "name": "id2",
          "type": "uint256"
        },
        {
          "name": "id",
          "type": "uint256"
        },
        {
          "name": "pquantity",
          "type": "uint256"
        }
      ],
      "name": "order",
      "outputs": [],
      "payable": true,
      "stateMutability": "payable",
      "type": "function"
    },
    {
      "constant": true,
      "inputs": [],
      "name": "getOrderCount",
      "outputs": [
        {
          "name": "",
          "type": "uint256"
        }
      ],
      "payable": false,
      "stateMutability": "view",
      "type": "function"
    },
    {
      "constant": false,
      "inputs": [
        {
          "name": "id",
          "type": "uint256"
        },
        {
          "name": "_quantity",
          "type": "uint256"
        },
        {
          "name": "price",
          "type": "uint256"
        }
      ],
      "name": "update_product",
      "outputs": [],
      "payable": false,
      "stateMutability": "nonpayable",
      "type": "function"
    },
    {
      "constant": true,
      "inputs": [
        {
          "name": "id",
          "type": "uint256"
        }
      ],
      "name": "viewproduct",
      "outputs": [
        {
          "name": "",
          "type": "uint256"
        },
        {
          "name": "",
          "type": "string"
        },
        {
          "name": "",
          "type": "string"
        },
        {
          "name": "",
          "type": "uint256"
        },
        {
          "name": "",
          "type": "uint256"
        },
        {
          "name": "",
          "type": "uint256"
        }
      ],
      "payable": false,
      "stateMutability": "view",
      "type": "function"
    },
    {
      "constant": true,
      "inputs": [
        {
          "name": "id2",
          "type": "uint256"
        }
      ],
      "name": "vieworder",
      "outputs": [
        {
          "name": "",
          "type": "uint256"
        },
        {
          "name": "",
          "type": "address"
        },
        {
          "name": "",
          "type": "uint256"
        },
        {
          "name": "",
          "type": "uint256"
        },
        {
          "name": "",
          "type": "uint256"
        },
        {
          "name": "",
          "type": "uint256"
        },
        {
          "name": "",
          "type": "uint256"
        }
      ],
      "payable": false,
      "stateMutability": "view",
      "type": "function"
    },
    {
      "constant": true,
      "inputs": [
        {
          "name": "id",
          "type": "uint256"
        }
      ],
      "name": "outOfStock",
      "outputs": [
        {
          "name": "",
          "type": "uint256"
        },
        {
          "name": "",
          "type": "uint256"
        },
        {
          "name": "",
          "type": "uint256"
        }
      ],
      "payable": false,
      "stateMutability": "view",
      "type": "function"
    },
    {
      "constant": false,
      "inputs": [
        {
          "name": "oid",
          "type": "uint256"
        },
        {
          "name": "id",
          "type": "uint256"
        }
      ],
      "name": "ordercancel",
      "outputs": [],
      "payable": false,
      "stateMutability": "nonpayable",
      "type": "function"
    },
    {
      "constant": true,
      "inputs": [],
      "name": "getcancell_list",
      "outputs": [
        {
          "name": "",
          "type": "uint256[]"
        }
      ],
      "payable": false,
      "stateMutability": "view",
      "type": "function"
    },
    {
      "constant": true,
      "inputs": [
        {
          "name": "oid",
          "type": "uint256"
        }
      ],
      "name": "cancel_list",
      "outputs": [
        {
          "name": "",
          "type": "uint256"
        },
        {
          "name": "",
          "type": "uint256"
        },
        {
          "name": "",
          "type": "address"
        },
        {
          "name": "",
          "type": "uint256"
        },
        {
          "name": "",
          "type": "uint256"
        }
      ],
      "payable": false,
      "stateMutability": "view",
      "type": "function"
    },
    {
      "constant": false,
      "inputs": [
        {
          "name": "x",
          "type": "address"
        },
        {
          "name": "_cid",
          "type": "uint256"
        }
      ],
      "name": "returnether",
      "outputs": [],
      "payable": true,
      "stateMutability": "payable",
      "type": "function"
    }
  ],
  "bytecode": "0x60606040526000600155341561001457600080fd5b33600960006101000a81548173ffffffffffffffffffffffffffffffffffffffff021916908373ffffffffffffffffffffffffffffffffffffffff160217905550611d35806100646000396000f30060606040526004361061013e576000357c0100000000000000000000000000000000000000000000000000000000900463ffffffff16806303c89492146101435780630e882129146102a85780631a79b79a146102d2578063218915e51461033c5780632804b2c0146103685780632ad0eaf4146103bd57806339a5b454146104e1578063481009d91461051857806349bc60c0146105a55780635786fd40146105ea5780635ae637cc146106135780636a450652146106c3578063721a13e9146106f8578063787964261461081c5780637f230f061461086157806386de905314610898578063870307c5146109175780638d0a5fbb1461094e5780638da5cb5b1461097757806392b1a83d146109cc5780639f77a60514610a4b578063aece059014610a82578063d6c0f72814610ab9578063e0f6ef8714610af0575b600080fd5b341561014e57600080fd5b6101646004808035906020019091905050610b19565b604051808a81526020018981526020018873ffffffffffffffffffffffffffffffffffffffff1673ffffffffffffffffffffffffffffffffffffffff1681526020018060200180602001878152602001868152602001858152602001848152602001838103835289818151815260200191508051906020019080838360005b838110156101fe5780820151818401526020810190506101e3565b50505050905090810190601f16801561022b5780820380516001836020036101000a031916815260200191505b50838103825288818151815260200191508051906020019080838360005b83811015610264578082015181840152602081019050610249565b50505050905090810190601f1680156102915780820380516001836020036101000a031916815260200191505b509b50505050505050505050505060405180910390f35b6102d06004808035906020019091908035906020019091908035906020019091905050610cb7565b005b34156102dd57600080fd5b6102e5610f59565b6040518080602001828103825283818151815260200191508051906020019060200280838360005b8381101561032857808201518184015260208101905061030d565b505050509050019250505060405180910390f35b341561034757600080fd5b6103666004808035906020019091908035906020019091905050610fb7565b005b341561037357600080fd5b61037b6111e6565b604051808273ffffffffffffffffffffffffffffffffffffffff1673ffffffffffffffffffffffffffffffffffffffff16815260200191505060405180910390f35b34156103c857600080fd5b6103de600480803590602001909190505061120b565b604051808781526020018060200180602001868152602001858152602001848152602001838103835288818151815260200191508051906020019080838360005b8381101561043a57808201518184015260208101905061041f565b50505050905090810190601f1680156104675780820380516001836020036101000a031916815260200191505b50838103825287818151815260200191508051906020019080838360005b838110156104a0578082015181840152602081019050610485565b50505050905090810190601f1680156104cd5780820380516001836020036101000a031916815260200191505b509850505050505050505060405180910390f35b34156104ec57600080fd5b6105026004808035906020019091905050611377565b6040518082815260200191505060405180910390f35b341561052357600080fd5b610539600480803590602001909190505061139b565b604051808881526020018773ffffffffffffffffffffffffffffffffffffffff1673ffffffffffffffffffffffffffffffffffffffff16815260200186815260200185815260200184815260200183815260200182815260200197505050505050505060405180910390f35b34156105b057600080fd5b6105c66004808035906020019091905050611480565b60405180848152602001838152602001828152602001935050505060405180910390f35b34156105f557600080fd5b6105fd6114d7565b6040518082815260200191505060405180910390f35b6106c1600480803590602001909190803590602001908201803590602001908080601f0160208091040260200160405190810160405280939291908181526020018383808284378201915050505050509190803590602001908201803590602001908080601f016020809104026020016040519081016040528093929190818152602001838380828437820191505050505050919080359060200190919080359060200190919050506114e4565b005b34156106ce57600080fd5b6106f66004808035906020019091908035906020019091908035906020019091905050611657565b005b341561070357600080fd5b6107196004808035906020019091905050611748565b604051808781526020018060200180602001868152602001858152602001848152602001838103835288818151815260200191508051906020019080838360005b8381101561077557808201518184015260208101905061075a565b50505050905090810190601f1680156107a25780820380516001836020036101000a031916815260200191505b50838103825287818151815260200191508051906020019080838360005b838110156107db5780820151818401526020810190506107c0565b50505050905090810190601f1680156108085780820380516001836020036101000a031916815260200191505b509850505050505050505060405180910390f35b341561082757600080fd5b61083d6004808035906020019091905050611934565b60405180848152602001838152602001828152602001935050505060405180910390f35b341561086c57600080fd5b610882600480803590602001909190505061195e565b6040518082815260200191505060405180910390f35b34156108a357600080fd5b6108b96004808035906020019091905050611982565b604051808681526020018581526020018473ffffffffffffffffffffffffffffffffffffffff1673ffffffffffffffffffffffffffffffffffffffff1681526020018381526020018281526020019550505050505060405180910390f35b341561092257600080fd5b6109386004808035906020019091905050611a30565b6040518082815260200191505060405180910390f35b341561095957600080fd5b610961611a50565b6040518082815260200191505060405180910390f35b341561098257600080fd5b61098a611a5d565b604051808273ffffffffffffffffffffffffffffffffffffffff1673ffffffffffffffffffffffffffffffffffffffff16815260200191505060405180910390f35b34156109d757600080fd5b6109ed6004808035906020019091905050611a83565b604051808681526020018581526020018473ffffffffffffffffffffffffffffffffffffffff1673ffffffffffffffffffffffffffffffffffffffff1681526020018381526020018281526020019550505050505060405180910390f35b3415610a5657600080fd5b610a6c6004808035906020019091905050611ad9565b6040518082815260200191505060405180910390f35b3415610a8d57600080fd5b610aa36004808035906020019091905050611afd565b6040518082815260200191505060405180910390f35b610aee600480803573ffffffffffffffffffffffffffffffffffffffff16906020019091908035906020019091905050611b21565b005b3415610afb57600080fd5b610b03611b83565b6040518082815260200191505060405180910390f35b60066020528060005260406000206000915090508060000154908060010154908060020160009054906101000a900473ffffffffffffffffffffffffffffffffffffffff1690806003018054600181600116156101000203166002900480601f016020809104026020016040519081016040528092919081815260200182805460018160011615610100020316600290048015610bf75780601f10610bcc57610100808354040283529160200191610bf7565b820191906000526020600020905b815481529060010190602001808311610bda57829003601f168201915b505050505090806004018054600181600116156101000203166002900480601f016020809104026020016040519081016040528092919081815260200182805460018160011615610100020316600290048015610c955780601f10610c6a57610100808354040283529160200191610c95565b820191906000526020600020905b815481529060010190602001808311610c7857829003601f168201915b5050505050908060050154908060060154908060070154908060080154905089565b600560008381526020019081526020016000206000015482148015610cf2575060056000838152602001908152602001600020600301548111155b1515610cfd57600080fd5b826006600085815260200190815260200160002060000181905550336006600085815260200190815260200160002060020160006101000a81548173ffffffffffffffffffffffffffffffffffffffff021916908373ffffffffffffffffffffffffffffffffffffffff16021790555081600660008581526020019081526020016000206001018190555060056000838152602001908152602001600020600101600660008581526020019081526020016000206003019080546001816001161561010002031660029004610dd3929190611b89565b5060056000838152602001908152602001600020600201600660008581526020019081526020016000206004019080546001816001161561010002031660029004610e1f929190611b89565b5080600660008581526020019081526020016000206005018190555060056000838152602001908152602001600020600401548102600660008581526020019081526020016000206006018190555042600660008581526020019081526020016000206007018190555060016006600085815260200190815260200160002060080181905550806005600084815260200190815260200160002060030160008282540392505081905550600960009054906101000a900473ffffffffffffffffffffffffffffffffffffffff1673ffffffffffffffffffffffffffffffffffffffff166108fc349081150290604051600060405180830381858888f193505050501515610f2b57600080fd5b60038054806001018281610f3f9190611c10565b916000526020600020900160008590919091505550505050565b610f61611c3c565b6004805480602002602001604051908101604052809291908181526020018280548015610fad57602002820191906000526020600020905b815481526020019060010190808311610f99575b5050505050905090565b60006006600084815260200190815260200160002060020160009054906101000a900473ffffffffffffffffffffffffffffffffffffffff1673ffffffffffffffffffffffffffffffffffffffff163373ffffffffffffffffffffffffffffffffffffffff1614151561102957600080fd5b600660008481526020019081526020016000206007015442039050610e10811115151561105557600080fd5b60066000848152602001908152602001600020600501546005600084815260200190815260200160002060030160008282540192505081905550600060066000858152602001908152602001600020600801819055508260086000858152602001908152602001600020600001819055508160086000858152602001908152602001600020600101819055506006600084815260200190815260200160002060020160009054906101000a900473ffffffffffffffffffffffffffffffffffffffff166008600085815260200190815260200160002060020160006101000a81548173ffffffffffffffffffffffffffffffffffffffff021916908373ffffffffffffffffffffffffffffffffffffffff16021790555060066000848152602001908152602001600020600601546008600085815260200190815260200160002060030181905550426008600085815260200190815260200160002060040181905550600480548060010182816111cc9190611c10565b916000526020600020900160008590919091505550505050565b6000809054906101000a900473ffffffffffffffffffffffffffffffffffffffff1681565b6005602052806000526040600020600091509050806000015490806001018054600181600116156101000203166002900480601f0160208091040260200160405190810160405280929190818152602001828054600181600116156101000203166002900480156112bd5780601f10611292576101008083540402835291602001916112bd565b820191906000526020600020905b8154815290600101906020018083116112a057829003601f168201915b505050505090806002018054600181600116156101000203166002900480601f01602080910402602001604051908101604052809291908181526020018280546001816001161561010002031660029004801561135b5780601f106113305761010080835404028352916020019161135b565b820191906000526020600020905b81548152906001019060200180831161133e57829003601f168201915b5050505050908060030154908060040154908060050154905086565b60048181548110151561138657fe5b90600052602060002090016000915090505481565b60008060008060008060006006600089815260200190815260200160002060000154600660008a815260200190815260200160002060020160009054906101000a900473ffffffffffffffffffffffffffffffffffffffff16600660008b815260200190815260200160002060010154600660008c815260200190815260200160002060050154600660008d815260200190815260200160002060060154600660008e815260200190815260200160002060070154600660008f8152602001908152602001600020600801549650965096509650965096509650919395979092949650565b60008060006005600085815260200190815260200160002060000154600560008681526020019081526020016000206003015460056000878152602001908152602001600020600401549250925092509193909250565b6000600280549050905090565b3373ffffffffffffffffffffffffffffffffffffffff16600960009054906101000a900473ffffffffffffffffffffffffffffffffffffffff1673ffffffffffffffffffffffffffffffffffffffff1614151561154057600080fd5b8460056000878152602001908152602001600020600001541415151561156557600080fd5b846005600087815260200190815260200160002060000181905550836005600087815260200190815260200160002060010190805190602001906115aa929190611c50565b50826005600087815260200190815260200160002060020190805190602001906115d5929190611c50565b508160056000878152602001908152602001600020600301819055508060056000878152602001908152602001600020600401819055504260056000878152602001908152602001600020600501819055506002805480600101828161163b9190611c10565b9160005260206000209001600087909190915055505050505050565b3373ffffffffffffffffffffffffffffffffffffffff16600960009054906101000a900473ffffffffffffffffffffffffffffffffffffffff1673ffffffffffffffffffffffffffffffffffffffff161415156116b357600080fd5b826007600085815260200190815260200160002060000181905550816007600085815260200190815260200160002060010181905550806007600085815260200190815260200160002060020181905550816005600085815260200190815260200160002060030160008282540192505081905550806005600085815260200190815260200160002060040181905550505050565b6000611752611cd0565b61175a611cd0565b6000806000600560008881526020019081526020016000206000015460056000898152602001908152602001600020600101600560008a8152602001908152602001600020600201600560008b815260200190815260200160002060030154600560008c815260200190815260200160002060040154600560008d815260200190815260200160002060050154848054600181600116156101000203166002900480601f01602080910402602001604051908101604052809291908181526020018280546001816001161561010002031660029004801561187c5780601f106118515761010080835404028352916020019161187c565b820191906000526020600020905b81548152906001019060200180831161185f57829003601f168201915b50505050509450838054600181600116156101000203166002900480601f0160208091040260200160405190810160405280929190818152602001828054600181600116156101000203166002900480156119185780601f106118ed57610100808354040283529160200191611918565b820191906000526020600020905b8154815290600101906020018083116118fb57829003601f168201915b5050505050935095509550955095509550955091939550919395565b60076020528060005260406000206000915090508060000154908060010154908060020154905083565b60038181548110151561196d57fe5b90600052602060002090016000915090505481565b6000806000806000600860008781526020019081526020016000206000015460086000888152602001908152602001600020600101546008600089815260200190815260200160002060020160009054906101000a900473ffffffffffffffffffffffffffffffffffffffff16600860008a815260200190815260200160002060030154600860008b8152602001908152602001600020600401549450945094509450945091939590929450565b600060056000838152602001908152602001600020600401549050919050565b6000600380549050905090565b600960009054906101000a900473ffffffffffffffffffffffffffffffffffffffff1681565b60086020528060005260406000206000915090508060000154908060010154908060020160009054906101000a900473ffffffffffffffffffffffffffffffffffffffff16908060030154908060040154905085565b6000600282815481101515611aea57fe5b9060005260206000209001549050919050565b600281815481101515611b0c57fe5b90600052602060002090016000915090505481565b600481815481101515611b3057fe5b9060005260206000209001600090558173ffffffffffffffffffffffffffffffffffffffff166108fc349081150290604051600060405180830381858888f193505050501515611b7f57600080fd5b5050565b60015481565b828054600181600116156101000203166002900490600052602060002090601f016020900481019282601f10611bc25780548555611bff565b82800160010185558215611bff57600052602060002091601f016020900482015b82811115611bfe578254825591600101919060010190611be3565b5b509050611c0c9190611ce4565b5090565b815481835581811511611c3757818360005260206000209182019101611c369190611ce4565b5b505050565b602060405190810160405280600081525090565b828054600181600116156101000203166002900490600052602060002090601f016020900481019282601f10611c9157805160ff1916838001178555611cbf565b82800160010185558215611cbf579182015b82811115611cbe578251825591602001919060010190611ca3565b5b509050611ccc9190611ce4565b5090565b602060405190810160405280600081525090565b611d0691905b80821115611d02576000816000905550600101611cea565b5090565b905600a165627a7a72305820f4848a8eba613654e1480f1bb5f141391eeecafa1720200ec7ffd52a5c5c40890029",
  "source": "pragma solidity ^0.4.0;\r\n\r\ncontract Inventory{\r\n     \r\n    \r\n     \r\n   address public customer;\r\n   uint256 public productCount=0;\r\n   uint256[] public p_id;\r\n   uint256[] public o_id;\r\n   uint256[] public c_id;\r\n   \r\n    struct product{\r\n        uint pid;\r\n        string pname;\r\n        string pbrand;\r\n        uint pquantity;\r\n        uint pprice;\r\n        uint time;\r\n       }\r\n     struct productorder{\r\n             uint id2;\r\n             uint id1;\r\n             address cid;\r\n             string name;\r\n             string brand;\r\n             uint quantity;\r\n             uint price;\r\n             uint time;\r\n             uint status;\r\n            \r\n            }\r\n        \r\n       \r\n        \r\n        struct in_order{\r\n            uint ipid;\r\n            uint iquantity;\r\n            uint iprice;\r\n           }\r\n     struct cancellorder{\r\n         uint oid;\r\n         uint pid;\r\n         address c_address;\r\n         uint price;\r\n         uint time;\r\n     }\r\n                          \r\n    \r\n    mapping(uint=>product)public PROD;\r\n    mapping(uint=>productorder)public ORDER;\r\n    mapping(uint=>in_order)public UPDATE;\r\n    mapping(uint=>cancellorder)public CANCELL;\r\n    \r\n    address public owner;\r\n\r\n    function Inventory()public {\r\n        owner = msg.sender;\r\n    }\r\n\r\n    modifier onlyOwner {\r\n        require (owner == msg.sender);\r\n        _;\r\n    }\r\n    \r\n    function view1(uint id)public constant returns(uint){\r\n         return (PROD[id].pprice);\r\n     }\r\n    \r\n    function p_details(uint id,string name,string brand,uint quantity,uint price)public  payable onlyOwner   {\r\n        require(PROD[id].pid!=id);\r\n        PROD[id].pid = id;\r\n        PROD[id].pname = name;\r\n        PROD[id].pbrand = brand;\r\n        PROD[id].pquantity = quantity;\r\n        PROD[id].pprice = price;\r\n        PROD[id].time = now;\r\n        p_id.push(id);\r\n        \r\n    }  \r\n   \r\n   function getProductsCount() public view returns(uint256){\r\n       return p_id.length;\r\n   }\r\n\r\n   function getProductId(uint _id) public view returns(uint256)\r\n   {\r\n       return p_id[_id];\r\n   }\r\n\r\n    function order(uint id2,uint id,uint pquantity)public payable {\r\n        \r\n           require(id ==PROD[id].pid && pquantity <= PROD[id].pquantity);\r\n           ORDER[id2].id2 = id2;\r\n           ORDER[id2].cid = msg.sender;\r\n           ORDER[id2].id1=id;\r\n           ORDER[id2].name =PROD[id].pname ;\r\n           ORDER[id2].brand =  PROD[id].pbrand;\r\n           ORDER[id2].quantity=pquantity;\r\n           ORDER[id2].price = pquantity *  PROD[id].pprice; \r\n           ORDER[id2].time = now;\r\n           ORDER[id2].status = 1;\r\n           PROD[id].pquantity-=pquantity;\r\n           owner.transfer(msg.value);\r\n           o_id.push(id2);\r\n          \r\n           \r\n    }\r\n    \r\n    function getOrderCount()public view returns(uint256){\r\n        return o_id.length;\r\n    }\r\n     \r\n   \r\n    function update_product(uint id,uint _quantity,uint price)public onlyOwner  {\r\n       \r\n       UPDATE[id].ipid = id;\r\n       UPDATE[id].iquantity = _quantity;\r\n       UPDATE[id].iprice = price;\r\n       PROD[id].pquantity+=_quantity;\r\n        PROD[id].pprice= price;\r\n       \r\n\r\n       }\r\n      \r\n         \r\n       function viewproduct(uint id)public constant returns(uint,string,string,uint,uint,uint){\r\n           \r\n           return(PROD[id].pid,PROD[id].pname,PROD[id].pbrand,  PROD[id].pquantity,PROD[id].pprice,PROD[id].time);\r\n       } \r\n       \r\n       \r\n       function vieworder(uint id2)public constant returns(uint,address,uint,uint,uint,uint,uint){\r\n                  \r\n           return (ORDER[id2].id2,ORDER[id2].cid, ORDER[id2].id1,  ORDER[id2].quantity,ORDER[id2].price, ORDER[id2].time, ORDER[id2].status);\r\n           \r\n       }\r\n       \r\n       function outOfStock(uint id)public constant returns(uint,uint,uint){\r\n            return (PROD[id].pid,PROD[id].pquantity,PROD[id].pprice);\r\n       }\r\n       \r\n       function ordercancel(uint oid,uint id)public{\r\n         require(msg.sender== ORDER[oid].cid);\r\n         uint t =(now -  ORDER[oid].time );\r\n           require(t<= 3600 seconds);\r\n       \r\n         PROD[id].pquantity += ORDER[oid].quantity ;\r\n         ORDER[oid].status = 0;\r\n           CANCELL[oid].oid = oid;\r\n           CANCELL[oid].pid = id ;\r\n           CANCELL[oid]. c_address =  ORDER[oid].cid ;\r\n           CANCELL[oid].price =  ORDER[oid].price;\r\n           CANCELL[oid].time = now;\r\n            c_id.push(oid);\r\n            \r\n            \r\n         }\r\n         \r\n         function getcancell_list()public view returns(uint256[]){\r\n             return c_id;\r\n         }\r\n        \r\n         \r\n         function cancel_list(uint oid)public constant returns(uint,uint,address,uint,uint){\r\n             return (CANCELL[oid].oid , CANCELL[oid].pid , CANCELL[oid]. c_address, CANCELL[oid].price , CANCELL[oid].time);\r\n         }\r\n    \r\n        function returnether(address x,uint256 _cid)public payable{\r\n            delete c_id[_cid];\r\n            x .transfer(msg.value);             \r\n        }\r\n        \r\n    }\r\n   \r\n     \r\n ",
  "sourcePath": "C:\\Users\\anusuya.0917\\Desktop\\inventory\\Inventory\\contracts\\Inventory.sol",
  "compiler": {
    "name": "solc",
    "version": "0.4.21+commit.dfe3193c.Emscripten.clang"
  },
  "schemaVersion": "2.0.0",
  "updatedAt": "2018-05-12T09:26:16.590Z"
}